{
  "contractName": "PakbetCertificate",
  "abi": [
    {
      "constant": true,
      "inputs": [
        {
          "name": "",
          "type": "uint256"
        }
      ],
      "name": "students",
      "outputs": [
        {
          "name": "blockChainAccount",
          "type": "address"
        }
      ],
      "payable": false,
      "stateMutability": "view",
      "type": "function"
    },
    {
      "constant": true,
      "inputs": [
        {
          "name": "",
          "type": "uint256"
        }
      ],
      "name": "issuers",
      "outputs": [
        {
          "name": "active",
          "type": "bool"
        },
        {
          "name": "name",
          "type": "string"
        }
      ],
      "payable": false,
      "stateMutability": "view",
      "type": "function"
    },
    {
      "constant": true,
      "inputs": [],
      "name": "getIssuerCount",
      "outputs": [
        {
          "name": "",
          "type": "uint256"
        }
      ],
      "payable": false,
      "stateMutability": "view",
      "type": "function"
    },
    {
      "constant": true,
      "inputs": [
        {
          "name": "",
          "type": "uint256"
        }
      ],
      "name": "certificates",
      "outputs": [
        {
          "name": "issuedTo",
          "type": "uint256"
        },
        {
          "name": "issuedBy",
          "type": "uint256"
        },
        {
          "name": "templateUsed",
          "type": "uint256"
        },
        {
          "name": "date",
          "type": "uint32"
        }
      ],
      "payable": false,
      "stateMutability": "view",
      "type": "function"
    },
    {
      "constant": false,
      "inputs": [
        {
          "name": "_title",
          "type": "string"
        },
        {
          "name": "_description",
          "type": "string"
        }
      ],
      "name": "createTemplate",
      "outputs": [],
      "payable": false,
      "stateMutability": "nonpayable",
      "type": "function"
    },
    {
      "constant": false,
      "inputs": [],
      "name": "renounceOwnership",
      "outputs": [],
      "payable": false,
      "stateMutability": "nonpayable",
      "type": "function"
    },
    {
      "constant": true,
      "inputs": [],
      "name": "owner",
      "outputs": [
        {
          "name": "",
          "type": "address"
        }
      ],
      "payable": false,
      "stateMutability": "view",
      "type": "function"
    },
    {
      "constant": true,
      "inputs": [],
      "name": "isOwner",
      "outputs": [
        {
          "name": "",
          "type": "bool"
        }
      ],
      "payable": false,
      "stateMutability": "view",
      "type": "function"
    },
    {
      "constant": false,
      "inputs": [
        {
          "name": "_issuerAddress",
          "type": "address"
        },
        {
          "name": "_name",
          "type": "string"
        }
      ],
      "name": "accreditIssuer",
      "outputs": [],
      "payable": false,
      "stateMutability": "nonpayable",
      "type": "function"
    },
    {
      "constant": true,
      "inputs": [
        {
          "name": "",
          "type": "uint256"
        }
      ],
      "name": "templates",
      "outputs": [
        {
          "name": "createdBy",
          "type": "address"
        },
        {
          "name": "title",
          "type": "string"
        },
        {
          "name": "description",
          "type": "string"
        }
      ],
      "payable": false,
      "stateMutability": "view",
      "type": "function"
    },
    {
      "constant": false,
      "inputs": [
        {
          "name": "_index",
          "type": "uint256"
        }
      ],
      "name": "deActivateIssuerById",
      "outputs": [],
      "payable": false,
      "stateMutability": "nonpayable",
      "type": "function"
    },
    {
      "constant": true,
      "inputs": [
        {
          "name": "_id",
          "type": "uint256"
        }
      ],
      "name": "getIssuedTemplates",
      "outputs": [
        {
          "name": "",
          "type": "uint256[]"
        }
      ],
      "payable": false,
      "stateMutability": "view",
      "type": "function"
    },
    {
      "constant": false,
      "inputs": [
        {
          "name": "_index",
          "type": "uint256"
        }
      ],
      "name": "reActivateIssuerById",
      "outputs": [],
      "payable": false,
      "stateMutability": "nonpayable",
      "type": "function"
    },
    {
      "constant": false,
      "inputs": [
        {
          "name": "newOwner",
          "type": "address"
        }
      ],
      "name": "transferOwnership",
      "outputs": [],
      "payable": false,
      "stateMutability": "nonpayable",
      "type": "function"
    },
    {
      "anonymous": false,
      "inputs": [
        {
          "indexed": false,
          "name": "issuerAddress",
          "type": "address"
        },
        {
          "indexed": false,
          "name": "title",
          "type": "string"
        },
        {
          "indexed": false,
          "name": "description",
          "type": "string"
        }
      ],
      "name": "NewTemplate",
      "type": "event"
    },
    {
      "anonymous": false,
      "inputs": [
        {
          "indexed": false,
          "name": "hashCode",
          "type": "bytes32"
        }
      ],
      "name": "NewCertificate",
      "type": "event"
    },
    {
      "anonymous": false,
      "inputs": [
        {
          "indexed": false,
          "name": "hashCode",
          "type": "bytes32"
        },
        {
          "indexed": false,
          "name": "student",
          "type": "address"
        }
      ],
      "name": "NewPremiumCertificate",
      "type": "event"
    },
    {
      "anonymous": false,
      "inputs": [
        {
          "indexed": false,
          "name": "issuerId",
          "type": "uint256"
        },
        {
          "indexed": false,
          "name": "name",
          "type": "string"
        }
      ],
      "name": "NewIssuer",
      "type": "event"
    },
    {
      "anonymous": false,
      "inputs": [
        {
          "indexed": false,
          "name": "id",
          "type": "uint256"
        },
        {
          "indexed": false,
          "name": "student",
          "type": "address"
        }
      ],
      "name": "NewStudent",
      "type": "event"
    },
    {
      "anonymous": false,
      "inputs": [
        {
          "indexed": true,
          "name": "previousOwner",
          "type": "address"
        },
        {
          "indexed": true,
          "name": "newOwner",
          "type": "address"
        }
      ],
      "name": "OwnershipTransferred",
      "type": "event"
    },
    {
      "constant": false,
      "inputs": [
        {
          "name": "_hashCode",
          "type": "bytes32"
        }
      ],
      "name": "awardRegularCertificate",
      "outputs": [
        {
          "name": "",
          "type": "bool"
        }
      ],
      "payable": false,
      "stateMutability": "nonpayable",
      "type": "function"
    },
    {
      "constant": true,
      "inputs": [
        {
          "name": "_hashCode",
          "type": "bytes32"
        }
      ],
      "name": "validateRegularCertificate",
      "outputs": [
        {
          "name": "",
          "type": "bool"
        }
      ],
      "payable": false,
      "stateMutability": "view",
      "type": "function"
    },
    {
      "constant": false,
      "inputs": [
        {
          "name": "_templateId",
          "type": "uint256"
        },
        {
          "name": "_hashCode",
          "type": "bytes32"
        },
        {
          "name": "_studentAddress",
          "type": "address"
        }
      ],
      "name": "awardPublicCertificates",
      "outputs": [],
      "payable": false,
      "stateMutability": "nonpayable",
      "type": "function"
    }
  ],
  "bytecode": "0x6080604052336000806101000a81548173ffffffffffffffffffffffffffffffffffffffff021916908373ffffffffffffffffffffffffffffffffffffffff1602179055506000809054906101000a900473ffffffffffffffffffffffffffffffffffffffff1673ffffffffffffffffffffffffffffffffffffffff16600073ffffffffffffffffffffffffffffffffffffffff167f8be0079c531659141344cd1fd0a4f28419497f9722a3daafe3b4186f6b6457e060405160405180910390a3611fdc806100cf6000396000f3fe6080604052600436106100f1576000357c0100000000000000000000000000000000000000000000000000000000900463ffffffff16806306ead22e146100f657806352a8f2711461017157806361ec30c4146101c457806363527b4914610283578063663b3e22146102ae5780636aeae8371461031e578063715018a6146103f95780638da5cb5b146104105780638f32d59b1461046757806392f0ae861461049657806397ded1b0146104e9578063a4d68d751461054e578063bc525652146105f4578063c01ff84c14610747578063e5f5a14614610782578063e97c147b14610812578063f2fde38b1461084d575b600080fd5b34801561010257600080fd5b5061012f6004803603602081101561011957600080fd5b810190808035906020019092919050505061089e565b604051808273ffffffffffffffffffffffffffffffffffffffff1673ffffffffffffffffffffffffffffffffffffffff16815260200191505060405180910390f35b34801561017d57600080fd5b506101aa6004803603602081101561019457600080fd5b81019080803590602001909291905050506108eb565b604051808215151515815260200191505060405180910390f35b3480156101d057600080fd5b506101fd600480360360208110156101e757600080fd5b8101908080359060200190929190505050610a5e565b604051808315151515815260200180602001828103825283818151815260200191508051906020019080838360005b8381101561024757808201518184015260208101905061022c565b50505050905090810190601f1680156102745780820380516001836020036101000a031916815260200191505b50935050505060405180910390f35b34801561028f57600080fd5b50610298610b36565b6040518082815260200191505060405180910390f35b3480156102ba57600080fd5b506102e7600480360360208110156102d157600080fd5b8101908080359060200190929190505050610b56565b604051808581526020018481526020018381526020018263ffffffff1663ffffffff16815260200194505050505060405180910390f35b34801561032a57600080fd5b506103f76004803603604081101561034157600080fd5b810190808035906020019064010000000081111561035e57600080fd5b82018360208201111561037057600080fd5b8035906020019184600183028401116401000000008311171561039257600080fd5b9091929391929390803590602001906401000000008111156103b357600080fd5b8201836020820111156103c557600080fd5b803590602001918460018302840111640100000000831117156103e757600080fd5b9091929391929390505050610ba5565b005b34801561040557600080fd5b5061040e610e13565b005b34801561041c57600080fd5b50610425610ee5565b604051808273ffffffffffffffffffffffffffffffffffffffff1673ffffffffffffffffffffffffffffffffffffffff16815260200191505060405180910390f35b34801561047357600080fd5b5061047c610f0e565b604051808215151515815260200191505060405180910390f35b3480156104a257600080fd5b506104cf600480360360208110156104b957600080fd5b8101908080359060200190929190505050610f65565b604051808215151515815260200191505060405180910390f35b3480156104f557600080fd5b5061054c6004803603606081101561050c57600080fd5b810190808035906020019092919080359060200190929190803573ffffffffffffffffffffffffffffffffffffffff169060200190929190505050610fb7565b005b34801561055a57600080fd5b506105f26004803603604081101561057157600080fd5b81019080803573ffffffffffffffffffffffffffffffffffffffff169060200190929190803590602001906401000000008111156105ae57600080fd5b8201836020820111156105c057600080fd5b803590602001918460018302840111640100000000831117156105e257600080fd5b90919293919293905050506112e3565b005b34801561060057600080fd5b5061062d6004803603602081101561061757600080fd5b8101908080359060200190929190505050611349565b604051808473ffffffffffffffffffffffffffffffffffffffff1673ffffffffffffffffffffffffffffffffffffffff1681526020018060200180602001838103835285818151815260200191508051906020019080838360005b838110156106a3578082015181840152602081019050610688565b50505050905090810190601f1680156106d05780820380516001836020036101000a031916815260200191505b50838103825284818151815260200191508051906020019080838360005b838110156107095780820151818401526020810190506106ee565b50505050905090810190601f1680156107365780820380516001836020036101000a031916815260200191505b509550505050505060405180910390f35b34801561075357600080fd5b506107806004803603602081101561076a57600080fd5b81019080803590602001909291905050506114d2565b005b34801561078e57600080fd5b506107bb600480360360208110156107a557600080fd5b810190808035906020019092919050505061155a565b6040518080602001828103825283818151815260200191508051906020019060200280838360005b838110156107fe5780820151818401526020810190506107e3565b505050509050019250505060405180910390f35b34801561081e57600080fd5b5061084b6004803603602081101561083557600080fd5b8101908080359060200190929190505050611675565b005b34801561085957600080fd5b5061089c6004803603602081101561087057600080fd5b81019080803573ffffffffffffffffffffffffffffffffffffffff1690602001909291905050506116fe565b005b6003818154811015156108ad57fe5b90600052602060002090600202016000915090508060000160009054906101000a900473ffffffffffffffffffffffffffffffffffffffff16905081565b6000336000600760008373ffffffffffffffffffffffffffffffffffffffff1673ffffffffffffffffffffffffffffffffffffffff168152602001908152602001600020549050600660008373ffffffffffffffffffffffffffffffffffffffff1673ffffffffffffffffffffffffffffffffffffffff16815260200190815260200160002060009054906101000a900460ff16151561098a57600080fd5b60028181548110151561099957fe5b906000526020600020906003020160000160009054906101000a900460ff1615156109c357600080fd5b600c600085815260200190815260200160002060009054906101000a900460ff161515156109f057600080fd5b6001600c600086815260200190815260200160002060006101000a81548160ff0219169083151502179055507f35445dd7684af4d0b1828f42019bd59ce22b71771e931983dfe04d5eb270afd8846040518082815260200191505060405180910390a1600192505050919050565b600281815481101515610a6d57fe5b90600052602060002090600302016000915090508060000160009054906101000a900460ff1690806001018054600181600116156101000203166002900480601f016020809104026020016040519081016040528092919081815260200182805460018160011615610100020316600290048015610b2c5780601f10610b0157610100808354040283529160200191610b2c565b820191906000526020600020905b815481529060010190602001808311610b0f57829003601f168201915b5050505050905082565b6000610b40610f0e565b1515610b4b57600080fd5b600280549050905090565b600181815481101515610b6557fe5b90600052602060002090600402016000915090508060000154908060010154908060020154908060030160009054906101000a900463ffffffff16905084565b33600660008273ffffffffffffffffffffffffffffffffffffffff1673ffffffffffffffffffffffffffffffffffffffff16815260200190815260200160002060009054906101000a900460ff161515610bfe57600080fd5b6000600760003373ffffffffffffffffffffffffffffffffffffffff1673ffffffffffffffffffffffffffffffffffffffff168152602001908152602001600020549050600086868686600286815481101515610c5757fe5b9060005260206000209060030201600101604051602001808060200180602001806020018481038452898982818152602001925080828437600081840152601f19601f8201169050808301925050508481038352878782818152602001925080828437600081840152601f19601f820116905080830192505050848103825285818154600181600116156101000203166002900481526020019150805460018160011615610100020316600290048015610d525780601f10610d2757610100808354040283529160200191610d52565b820191906000526020600020905b815481529060010190602001808311610d3557829003601f168201915b505098505050505050505050604051602081830303815290604052805190602001209050610e0a3388888080601f016020809104026020016040519081016040528093929190818152602001838380828437600081840152601f19601f8201169050808301925050505050505087878080601f016020809104026020016040519081016040528093929190818152602001838380828437600081840152601f19601f820116905080830192505050505050508461171d565b50505050505050565b610e1b610f0e565b1515610e2657600080fd5b600073ffffffffffffffffffffffffffffffffffffffff166000809054906101000a900473ffffffffffffffffffffffffffffffffffffffff1673ffffffffffffffffffffffffffffffffffffffff167f8be0079c531659141344cd1fd0a4f28419497f9722a3daafe3b4186f6b6457e060405160405180910390a360008060006101000a81548173ffffffffffffffffffffffffffffffffffffffff021916908373ffffffffffffffffffffffffffffffffffffffff160217905550565b60008060009054906101000a900473ffffffffffffffffffffffffffffffffffffffff16905090565b60008060009054906101000a900473ffffffffffffffffffffffffffffffffffffffff1673ffffffffffffffffffffffffffffffffffffffff163373ffffffffffffffffffffffffffffffffffffffff1614905090565b6000600c600083815260200190815260200160002060009054906101000a900460ff1680610fb05750600b600083815260200190815260200160002060009054906101000a900460ff165b9050919050565b33600660008273ffffffffffffffffffffffffffffffffffffffff1673ffffffffffffffffffffffffffffffffffffffff16815260200190815260200160002060009054906101000a900460ff16151561101057600080fd5b6004805490508410151561102357600080fd5b3373ffffffffffffffffffffffffffffffffffffffff1660048581548110151561104957fe5b906000526020600020906003020160000160009054906101000a900473ffffffffffffffffffffffffffffffffffffffff1673ffffffffffffffffffffffffffffffffffffffff1614151561109d57600080fd5b600560008373ffffffffffffffffffffffffffffffffffffffff1673ffffffffffffffffffffffffffffffffffffffff16815260200190815260200160002060009054906101000a900460ff1615156110f557600080fd5b600b600084815260200190815260200160002060009054906101000a900460ff1615151561112257600080fd5b6000600860008473ffffffffffffffffffffffffffffffffffffffff1673ffffffffffffffffffffffffffffffffffffffff1681526020019081526020016000205490506000600760003373ffffffffffffffffffffffffffffffffffffffff1673ffffffffffffffffffffffffffffffffffffffff16815260200190815260200160002054905060006001806080604051908101604052808681526020018581526020018a81526020014263ffffffff168152509080600181540180825580915050906001820390600052602060002090600402016000909192909190915060008201518160000155602082015181600101556040820151816002015560608201518160030160006101000a81548163ffffffff021916908363ffffffff16021790555050500390506001600b600088815260200190815260200160002060006101000a81548160ff02191690831515021790555080600960008881526020019081526020016000208190555060038381548110151561129f57fe5b906000526020600020906002020160010181908060018154018082558091505090600182039060005260206000200160009091929091909150555050505050505050565b6112eb610f0e565b15156112f657600080fd5b6113448383838080601f016020809104026020016040519081016040528093929190818152602001838380828437600081840152601f19601f82011690508083019250505050505050611a65565b505050565b60048181548110151561135857fe5b90600052602060002090600302016000915090508060000160009054906101000a900473ffffffffffffffffffffffffffffffffffffffff1690806001018054600181600116156101000203166002900480601f01602080910402602001604051908101604052809291908181526020018280546001816001161561010002031660029004801561142a5780601f106113ff5761010080835404028352916020019161142a565b820191906000526020600020905b81548152906001019060200180831161140d57829003601f168201915b505050505090806002018054600181600116156101000203166002900480601f0160208091040260200160405190810160405280929190818152602001828054600181600116156101000203166002900480156114c85780601f1061149d576101008083540402835291602001916114c8565b820191906000526020600020905b8154815290600101906020018083116114ab57829003601f168201915b5050505050905083565b6114da610f0e565b15156114e557600080fd5b6002818154811015156114f457fe5b906000526020600020906003020160000160009054906101000a900460ff16151561151e57600080fd5b600060028281548110151561152f57fe5b906000526020600020906003020160000160006101000a81548160ff02191690831515021790555050565b6060611564610f0e565b151561156f57600080fd5b6002805490508210151561158257600080fd5b606060028381548110151561159357fe5b9060005260206000209060030201600201805490506040519080825280602002602001820160405280156115d65781602001602082028038833980820191505090505b50905060008090505b6002848154811015156115ee57fe5b90600052602060002090600302016002018054905081101561166b5760028481548110151561161957fe5b90600052602060002090600302016002018181548110151561163757fe5b9060005260206000200154828281518110151561165057fe5b906020019060200201818152505080806001019150506115df565b5080915050919050565b61167d610f0e565b151561168857600080fd5b60028181548110151561169757fe5b906000526020600020906003020160000160009054906101000a900460ff161515156116c257600080fd5b60016002828154811015156116d357fe5b906000526020600020906003020160000160006101000a81548160ff02191690831515021790555050565b611706610f0e565b151561171157600080fd5b61171a81611c8b565b50565b80600a600082815260200190815260200160002060009054906101000a900460ff1615151561174b57600080fd5b6000600480548091906001016117619190611d85565b90506000600760008873ffffffffffffffffffffffffffffffffffffffff1673ffffffffffffffffffffffffffffffffffffffff1681526020019081526020016000205490506002818154811015156117b657fe5b906000526020600020906003020160000160009054906101000a900460ff1615156117e057600080fd5b866004838154811015156117f057fe5b906000526020600020906003020160000160006101000a81548173ffffffffffffffffffffffffffffffffffffffff021916908373ffffffffffffffffffffffffffffffffffffffff1602179055508560048381548110151561184f57fe5b90600052602060002090600302016001019080519060200190611873929190611db7565b508460048381548110151561188457fe5b906000526020600020906003020160020190805190602001906118a8929190611db7565b506002818154811015156118b857fe5b90600052602060002090600302016002018290806001815401808255809150509060018203906000526020600020016000909192909190915055506001600a600086815260200190815260200160002060006101000a81548160ff0219169083151502179055507fcbb28b3e1f77d025889ab5d1e72a2eca69e6105bc36f0044122e59c55f40e18f878787604051808473ffffffffffffffffffffffffffffffffffffffff1673ffffffffffffffffffffffffffffffffffffffff1681526020018060200180602001838103835285818151815260200191508051906020019080838360005b838110156119b957808201518184015260208101905061199e565b50505050905090810190601f1680156119e65780820380516001836020036101000a031916815260200191505b50838103825284818151815260200191508051906020019080838360005b83811015611a1f578082015181840152602081019050611a04565b50505050905090810190601f168015611a4c5780820380516001836020036101000a031916815260200191505b509550505050505060405180910390a150505050505050565b81600660008273ffffffffffffffffffffffffffffffffffffffff1673ffffffffffffffffffffffffffffffffffffffff16815260200190815260200160002060009054906101000a900460ff16151515611abf57600080fd5b600060028054809190600101611ad59190611e37565b90506001600282815481101515611ae857fe5b906000526020600020906003020160000160006101000a81548160ff02191690831515021790555082600282815481101515611b2057fe5b90600052602060002090600302016001019080519060200190611b44929190611db7565b506001600660008673ffffffffffffffffffffffffffffffffffffffff1673ffffffffffffffffffffffffffffffffffffffff16815260200190815260200160002060006101000a81548160ff02191690831515021790555080600760008673ffffffffffffffffffffffffffffffffffffffff1673ffffffffffffffffffffffffffffffffffffffff168152602001908152602001600020819055507faf49f6e647e48528a5c4c0a5801947007b7fa9744c066de10b2f7e747754bf1d81846040518083815260200180602001828103825283818151815260200191508051906020019080838360005b83811015611c4a578082015181840152602081019050611c2f565b50505050905090810190601f168015611c775780820380516001836020036101000a031916815260200191505b50935050505060405180910390a150505050565b600073ffffffffffffffffffffffffffffffffffffffff168173ffffffffffffffffffffffffffffffffffffffff1614151515611cc757600080fd5b8073ffffffffffffffffffffffffffffffffffffffff166000809054906101000a900473ffffffffffffffffffffffffffffffffffffffff1673ffffffffffffffffffffffffffffffffffffffff167f8be0079c531659141344cd1fd0a4f28419497f9722a3daafe3b4186f6b6457e060405160405180910390a3806000806101000a81548173ffffffffffffffffffffffffffffffffffffffff021916908373ffffffffffffffffffffffffffffffffffffffff16021790555050565b815481835581811115611db257600302816003028360005260206000209182019101611db19190611e69565b5b505050565b828054600181600116156101000203166002900490600052602060002090601f016020900481019282601f10611df857805160ff1916838001178555611e26565b82800160010185558215611e26579182015b82811115611e25578251825591602001919060010190611e0a565b5b509050611e339190611ecf565b5090565b815481835581811115611e6457600302816003028360005260206000209182019101611e639190611ef4565b5b505050565b611ecc91905b80821115611ec857600080820160006101000a81549073ffffffffffffffffffffffffffffffffffffffff0219169055600182016000611eaf9190611f47565b600282016000611ebf9190611f47565b50600301611e6f565b5090565b90565b611ef191905b80821115611eed576000816000905550600101611ed5565b5090565b90565b611f4491905b80821115611f4057600080820160006101000a81549060ff0219169055600182016000611f279190611f47565b600282016000611f379190611f8f565b50600301611efa565b5090565b90565b50805460018160011615610100020316600290046000825580601f10611f6d5750611f8c565b601f016020900490600052602060002090810190611f8b9190611ecf565b5b50565b5080546000825590600052602060002090810190611fad9190611ecf565b5056fea165627a7a723058209973b6b1a83c0afb01f1a26ca71ce51c12fb2b621c8d0e8e1ba46be0822d26260029",
  "source": "pragma solidity ^0.5.0;\r\nimport \"./PakbetTemplate.sol\";\r\n\r\ncontract PakbetCertificate is PakbetTemplate {\r\n    \r\n\r\n    /**\r\n     * @dev Record the hash value of the pdf document to the blockchain account.\r\n     * @notice Only accredited account can call this function.\r\n     * @return true if awarding of certificate is good, false if awarding of certificate fails.\r\n     * @param _hashCode the resulting value when pdf is hashed.\r\n     */\r\n    function awardRegularCertificate(bytes32 _hashCode) external canAward(msg.sender) returns(bool) {\r\n        require(!regularCertificates[_hashCode]);\r\n        regularCertificates[_hashCode] = true;\r\n        emit NewCertificate(_hashCode);\r\n        return true;\r\n    }\r\n    \r\n    /**\r\n     * @return true if Certificate exist in the blockchain, false if not.\r\n     * @param _hashCode the resulting value when pdf is hashed.\r\n     */\r\n    function validateRegularCertificate(bytes32 _hashCode) external view returns(bool) {\r\n        return (regularCertificates[_hashCode] || premiumCertificates[_hashCode]);\r\n    }\r\n    \r\n    /**\r\n     * @param _templateId uint256 value corresponding to the index position of template in the templates[] array.\r\n     * @param _hashCode the resulting value when pdf is hashed.\r\n     * @param _studentAddress Blockchain Address associated to the student.\r\n     */ \r\n    function awardPublicCertificates(\r\n        uint256 _templateId, \r\n        bytes32 _hashCode, \r\n        address _studentAddress\r\n    ) \r\n        external isAccredited(msg.sender) \r\n    {\r\n        require(_templateId < templates.length);\r\n        require(templates[_templateId].createdBy == msg.sender);\r\n        require(premiumStudents[_studentAddress]);\r\n        require(!premiumCertificates[_hashCode]);\r\n        \r\n        uint256 studentIndex = addressToStudent[_studentAddress];\r\n        uint256 issuerIndex = addressToIssuer[msg.sender];\r\n        \r\n        uint256 id = certificates.push(Certificate(studentIndex, issuerIndex, _templateId, uint32(now))) - 1;\r\n        premiumCertificates[_hashCode] = true;\r\n        bytesToCertificate[_hashCode] = id;\r\n        \r\n        students[studentIndex].certificatesOwned.push(id);\r\n    }\r\n}\r\n",
  "sourcePath": "D:\\ethereum\\ctc\\contracts\\PakbetCertificate.sol",
  "compiler": {
    "name": "solc",
    "version": "0.5.0+commit.1d4f565a.Emscripten.clang"
  },
  "schemaVersion": "3.0.18",
  "updatedAt": "2019-11-10T10:09:33.348Z",
  "networkType": "ethereum",
  "devdoc": {
    "methods": {
      "accreditIssuer(address,string)": {
        "details": "Only the owner of the smart contract account can call this function. \r",
        "params": {
          "_issuerAddress": "Blockchain Address associated to the training institution.\r",
          "_name": "Name of the training institution.\r"
        }
      },
      "awardPublicCertificates(uint256,bytes32,address)": {
        "params": {
          "_hashCode": "the resulting value when pdf is hashed.\r",
          "_studentAddress": "Blockchain Address associated to the student.\r",
          "_templateId": "uint256 value corresponding to the index position of template in the templates[] array.\r"
        }
      },
      "awardRegularCertificate(bytes32)": {
        "details": "Record the hash value of the pdf document to the blockchain account.\r",
        "params": {
          "_hashCode": "the resulting value when pdf is hashed.\r"
        },
        "return": "true if awarding of certificate is good, false if awarding of certificate fails.\r"
      },
      "createTemplate(string,string)": {
        "details": "Only account in the issuer[] array can call this function.\r",
        "params": {
          "_description": "certificate description e.g. BTA Expert Program\r",
          "_title": "certificate description e.g. Certificate of Attendance.\r"
        }
      },
      "deActivateIssuerById(uint256)": {
        "params": {
          "_index": "uint256 value corresponding to the index position of the training institution\r in the issuers[] array.\r"
        }
      },
      "getIssuedTemplates(uint256)": {
        "params": {
          "_id": "uint256 value corresponding to the index position of the training institution\r"
        },
        "return": "an array containing the template ids created template by the institution \r"
      },
      "getIssuerCount()": {
        "return": "the number of accredited institution\r"
      },
      "isOwner()": {
        "return": "true if `msg.sender` is the owner of the contract.\r"
      },
      "owner()": {
        "return": "the address of the owner.\r"
      },
      "reActivateIssuerById(uint256)": {
        "params": {
          "_index": "uint256 value corresponding to the index position of the training institution\r in the issuers[] array.\r"
        }
      },
      "renounceOwnership()": {
        "details": "Allows the current owner to relinquish control of the contract.\r"
      },
      "transferOwnership(address)": {
        "details": "Allows the current owner to transfer control of the contract to a newOwner.\r",
        "params": {
          "newOwner": "The address to transfer ownership to.\r"
        }
      },
      "validateRegularCertificate(bytes32)": {
        "params": {
          "_hashCode": "the resulting value when pdf is hashed.\r"
        },
        "return": "true if Certificate exist in the blockchain, false if not.\r"
      }
    }
  },
  "userdoc": {
    "methods": {
      "accreditIssuer(address,string)": {
        "notice": "Add training institution to the blockchain.\r"
      },
      "awardRegularCertificate(bytes32)": {
        "notice": "Only accredited account can call this function.\r"
      },
      "createTemplate(string,string)": {
        "notice": "Creates blank certificates which will become basis for certificates\r to be issued.\r"
      },
      "deActivateIssuerById(uint256)": {
        "notice": "Prevent a training institution from creating and awarding certificates.\r"
      },
      "reActivateIssuerById(uint256)": {
        "notice": "Allows a training institution from creating and awarding certificates.\r"
      },
      "renounceOwnership()": {
        "notice": "Renouncing to ownership will leave the contract without an owner.\r It will not be possible to call the functions with the `onlyOwner`\r modifier anymore.\r"
      }
    }
  }
}