{
  "contractName": "PakbetTemplate",
  "abi": [
    {
      "constant": true,
      "inputs": [
        {
          "name": "",
          "type": "uint256"
        }
      ],
      "name": "students",
      "outputs": [
        {
          "name": "blockChainAccount",
          "type": "address"
        }
      ],
      "payable": false,
      "stateMutability": "view",
      "type": "function"
    },
    {
      "constant": true,
      "inputs": [
        {
          "name": "",
          "type": "uint256"
        }
      ],
      "name": "issuers",
      "outputs": [
        {
          "name": "active",
          "type": "bool"
        },
        {
          "name": "name",
          "type": "string"
        }
      ],
      "payable": false,
      "stateMutability": "view",
      "type": "function"
    },
    {
      "constant": true,
      "inputs": [],
      "name": "getIssuerCount",
      "outputs": [
        {
          "name": "",
          "type": "uint256"
        }
      ],
      "payable": false,
      "stateMutability": "view",
      "type": "function"
    },
    {
      "constant": true,
      "inputs": [
        {
          "name": "",
          "type": "uint256"
        }
      ],
      "name": "certificates",
      "outputs": [
        {
          "name": "issuedTo",
          "type": "uint256"
        },
        {
          "name": "issuedBy",
          "type": "uint256"
        },
        {
          "name": "templateUsed",
          "type": "uint256"
        },
        {
          "name": "date",
          "type": "uint32"
        }
      ],
      "payable": false,
      "stateMutability": "view",
      "type": "function"
    },
    {
      "constant": false,
      "inputs": [],
      "name": "renounceOwnership",
      "outputs": [],
      "payable": false,
      "stateMutability": "nonpayable",
      "type": "function"
    },
    {
      "constant": true,
      "inputs": [],
      "name": "owner",
      "outputs": [
        {
          "name": "",
          "type": "address"
        }
      ],
      "payable": false,
      "stateMutability": "view",
      "type": "function"
    },
    {
      "constant": true,
      "inputs": [],
      "name": "isOwner",
      "outputs": [
        {
          "name": "",
          "type": "bool"
        }
      ],
      "payable": false,
      "stateMutability": "view",
      "type": "function"
    },
    {
      "constant": false,
      "inputs": [
        {
          "name": "_issuerAddress",
          "type": "address"
        },
        {
          "name": "_name",
          "type": "string"
        }
      ],
      "name": "accreditIssuer",
      "outputs": [],
      "payable": false,
      "stateMutability": "nonpayable",
      "type": "function"
    },
    {
      "constant": true,
      "inputs": [
        {
          "name": "",
          "type": "uint256"
        }
      ],
      "name": "templates",
      "outputs": [
        {
          "name": "createdBy",
          "type": "address"
        },
        {
          "name": "title",
          "type": "string"
        },
        {
          "name": "description",
          "type": "string"
        }
      ],
      "payable": false,
      "stateMutability": "view",
      "type": "function"
    },
    {
      "constant": false,
      "inputs": [
        {
          "name": "_index",
          "type": "uint256"
        }
      ],
      "name": "deActivateIssuerById",
      "outputs": [],
      "payable": false,
      "stateMutability": "nonpayable",
      "type": "function"
    },
    {
      "constant": false,
      "inputs": [
        {
          "name": "_index",
          "type": "uint256"
        }
      ],
      "name": "reActivateIssuerById",
      "outputs": [],
      "payable": false,
      "stateMutability": "nonpayable",
      "type": "function"
    },
    {
      "constant": false,
      "inputs": [
        {
          "name": "newOwner",
          "type": "address"
        }
      ],
      "name": "transferOwnership",
      "outputs": [],
      "payable": false,
      "stateMutability": "nonpayable",
      "type": "function"
    },
    {
      "anonymous": false,
      "inputs": [
        {
          "indexed": false,
          "name": "issuerAddress",
          "type": "address"
        },
        {
          "indexed": false,
          "name": "title",
          "type": "string"
        },
        {
          "indexed": false,
          "name": "description",
          "type": "string"
        }
      ],
      "name": "NewTemplate",
      "type": "event"
    },
    {
      "anonymous": false,
      "inputs": [
        {
          "indexed": false,
          "name": "hashCode",
          "type": "bytes32"
        }
      ],
      "name": "NewCertificate",
      "type": "event"
    },
    {
      "anonymous": false,
      "inputs": [
        {
          "indexed": false,
          "name": "hashCode",
          "type": "bytes32"
        },
        {
          "indexed": false,
          "name": "student",
          "type": "address"
        }
      ],
      "name": "NewPremiumCertificate",
      "type": "event"
    },
    {
      "anonymous": false,
      "inputs": [
        {
          "indexed": false,
          "name": "issuerId",
          "type": "uint256"
        },
        {
          "indexed": false,
          "name": "name",
          "type": "string"
        }
      ],
      "name": "NewIssuer",
      "type": "event"
    },
    {
      "anonymous": false,
      "inputs": [
        {
          "indexed": false,
          "name": "id",
          "type": "uint256"
        },
        {
          "indexed": false,
          "name": "student",
          "type": "address"
        }
      ],
      "name": "NewStudent",
      "type": "event"
    },
    {
      "anonymous": false,
      "inputs": [
        {
          "indexed": true,
          "name": "previousOwner",
          "type": "address"
        },
        {
          "indexed": true,
          "name": "newOwner",
          "type": "address"
        }
      ],
      "name": "OwnershipTransferred",
      "type": "event"
    },
    {
      "constant": false,
      "inputs": [
        {
          "name": "_title",
          "type": "string"
        },
        {
          "name": "_description",
          "type": "string"
        }
      ],
      "name": "createTemplate",
      "outputs": [],
      "payable": false,
      "stateMutability": "nonpayable",
      "type": "function"
    },
    {
      "constant": true,
      "inputs": [
        {
          "name": "_id",
          "type": "uint256"
        }
      ],
      "name": "getIssuedTemplates",
      "outputs": [
        {
          "name": "",
          "type": "uint256[]"
        }
      ],
      "payable": false,
      "stateMutability": "view",
      "type": "function"
    }
  ],
  "bytecode": "0x6080604052336000806101000a81548173ffffffffffffffffffffffffffffffffffffffff021916908373ffffffffffffffffffffffffffffffffffffffff1602179055506000809054906101000a900473ffffffffffffffffffffffffffffffffffffffff1673ffffffffffffffffffffffffffffffffffffffff16600073ffffffffffffffffffffffffffffffffffffffff167f8be0079c531659141344cd1fd0a4f28419497f9722a3daafe3b4186f6b6457e060405160405180910390a36119bf806100cf6000396000f3fe6080604052600436106100d0576000357c0100000000000000000000000000000000000000000000000000000000900463ffffffff16806306ead22e146100d557806361ec30c41461015057806363527b491461020f578063663b3e221461023a5780636aeae837146102aa578063715018a6146103855780638da5cb5b1461039c5780638f32d59b146103f3578063a4d68d7514610422578063bc525652146104c8578063c01ff84c1461061b578063e5f5a14614610656578063e97c147b146106e6578063f2fde38b14610721575b600080fd5b3480156100e157600080fd5b5061010e600480360360208110156100f857600080fd5b8101908080359060200190929190505050610772565b604051808273ffffffffffffffffffffffffffffffffffffffff1673ffffffffffffffffffffffffffffffffffffffff16815260200191505060405180910390f35b34801561015c57600080fd5b506101896004803603602081101561017357600080fd5b81019080803590602001909291905050506107bf565b604051808315151515815260200180602001828103825283818151815260200191508051906020019080838360005b838110156101d35780820151818401526020810190506101b8565b50505050905090810190601f1680156102005780820380516001836020036101000a031916815260200191505b50935050505060405180910390f35b34801561021b57600080fd5b50610224610897565b6040518082815260200191505060405180910390f35b34801561024657600080fd5b506102736004803603602081101561025d57600080fd5b81019080803590602001909291905050506108b7565b604051808581526020018481526020018381526020018263ffffffff1663ffffffff16815260200194505050505060405180910390f35b3480156102b657600080fd5b50610383600480360360408110156102cd57600080fd5b81019080803590602001906401000000008111156102ea57600080fd5b8201836020820111156102fc57600080fd5b8035906020019184600183028401116401000000008311171561031e57600080fd5b90919293919293908035906020019064010000000081111561033f57600080fd5b82018360208201111561035157600080fd5b8035906020019184600183028401116401000000008311171561037357600080fd5b9091929391929390505050610906565b005b34801561039157600080fd5b5061039a610b74565b005b3480156103a857600080fd5b506103b1610c46565b604051808273ffffffffffffffffffffffffffffffffffffffff1673ffffffffffffffffffffffffffffffffffffffff16815260200191505060405180910390f35b3480156103ff57600080fd5b50610408610c6f565b604051808215151515815260200191505060405180910390f35b34801561042e57600080fd5b506104c66004803603604081101561044557600080fd5b81019080803573ffffffffffffffffffffffffffffffffffffffff1690602001909291908035906020019064010000000081111561048257600080fd5b82018360208201111561049457600080fd5b803590602001918460018302840111640100000000831117156104b657600080fd5b9091929391929390505050610cc6565b005b3480156104d457600080fd5b50610501600480360360208110156104eb57600080fd5b8101908080359060200190929190505050610d2c565b604051808473ffffffffffffffffffffffffffffffffffffffff1673ffffffffffffffffffffffffffffffffffffffff1681526020018060200180602001838103835285818151815260200191508051906020019080838360005b8381101561057757808201518184015260208101905061055c565b50505050905090810190601f1680156105a45780820380516001836020036101000a031916815260200191505b50838103825284818151815260200191508051906020019080838360005b838110156105dd5780820151818401526020810190506105c2565b50505050905090810190601f16801561060a5780820380516001836020036101000a031916815260200191505b509550505050505060405180910390f35b34801561062757600080fd5b506106546004803603602081101561063e57600080fd5b8101908080359060200190929190505050610eb5565b005b34801561066257600080fd5b5061068f6004803603602081101561067957600080fd5b8101908080359060200190929190505050610f3d565b6040518080602001828103825283818151815260200191508051906020019060200280838360005b838110156106d25780820151818401526020810190506106b7565b505050509050019250505060405180910390f35b3480156106f257600080fd5b5061071f6004803603602081101561070957600080fd5b8101908080359060200190929190505050611058565b005b34801561072d57600080fd5b506107706004803603602081101561074457600080fd5b81019080803573ffffffffffffffffffffffffffffffffffffffff1690602001909291905050506110e1565b005b60038181548110151561078157fe5b90600052602060002090600202016000915090508060000160009054906101000a900473ffffffffffffffffffffffffffffffffffffffff16905081565b6002818154811015156107ce57fe5b90600052602060002090600302016000915090508060000160009054906101000a900460ff1690806001018054600181600116156101000203166002900480601f01602080910402602001604051908101604052809291908181526020018280546001816001161561010002031660029004801561088d5780601f106108625761010080835404028352916020019161088d565b820191906000526020600020905b81548152906001019060200180831161087057829003601f168201915b5050505050905082565b60006108a1610c6f565b15156108ac57600080fd5b600280549050905090565b6001818154811015156108c657fe5b90600052602060002090600402016000915090508060000154908060010154908060020154908060030160009054906101000a900463ffffffff16905084565b33600660008273ffffffffffffffffffffffffffffffffffffffff1673ffffffffffffffffffffffffffffffffffffffff16815260200190815260200160002060009054906101000a900460ff16151561095f57600080fd5b6000600760003373ffffffffffffffffffffffffffffffffffffffff1673ffffffffffffffffffffffffffffffffffffffff1681526020019081526020016000205490506000868686866002868154811015156109b857fe5b9060005260206000209060030201600101604051602001808060200180602001806020018481038452898982818152602001925080828437600081840152601f19601f8201169050808301925050508481038352878782818152602001925080828437600081840152601f19601f820116905080830192505050848103825285818154600181600116156101000203166002900481526020019150805460018160011615610100020316600290048015610ab35780601f10610a8857610100808354040283529160200191610ab3565b820191906000526020600020905b815481529060010190602001808311610a9657829003601f168201915b505098505050505050505050604051602081830303815290604052805190602001209050610b6b3388888080601f016020809104026020016040519081016040528093929190818152602001838380828437600081840152601f19601f8201169050808301925050505050505087878080601f016020809104026020016040519081016040528093929190818152602001838380828437600081840152601f19601f8201169050808301925050505050505084611100565b50505050505050565b610b7c610c6f565b1515610b8757600080fd5b600073ffffffffffffffffffffffffffffffffffffffff166000809054906101000a900473ffffffffffffffffffffffffffffffffffffffff1673ffffffffffffffffffffffffffffffffffffffff167f8be0079c531659141344cd1fd0a4f28419497f9722a3daafe3b4186f6b6457e060405160405180910390a360008060006101000a81548173ffffffffffffffffffffffffffffffffffffffff021916908373ffffffffffffffffffffffffffffffffffffffff160217905550565b60008060009054906101000a900473ffffffffffffffffffffffffffffffffffffffff16905090565b60008060009054906101000a900473ffffffffffffffffffffffffffffffffffffffff1673ffffffffffffffffffffffffffffffffffffffff163373ffffffffffffffffffffffffffffffffffffffff1614905090565b610cce610c6f565b1515610cd957600080fd5b610d278383838080601f016020809104026020016040519081016040528093929190818152602001838380828437600081840152601f19601f82011690508083019250505050505050611448565b505050565b600481815481101515610d3b57fe5b90600052602060002090600302016000915090508060000160009054906101000a900473ffffffffffffffffffffffffffffffffffffffff1690806001018054600181600116156101000203166002900480601f016020809104026020016040519081016040528092919081815260200182805460018160011615610100020316600290048015610e0d5780601f10610de257610100808354040283529160200191610e0d565b820191906000526020600020905b815481529060010190602001808311610df057829003601f168201915b505050505090806002018054600181600116156101000203166002900480601f016020809104026020016040519081016040528092919081815260200182805460018160011615610100020316600290048015610eab5780601f10610e8057610100808354040283529160200191610eab565b820191906000526020600020905b815481529060010190602001808311610e8e57829003601f168201915b5050505050905083565b610ebd610c6f565b1515610ec857600080fd5b600281815481101515610ed757fe5b906000526020600020906003020160000160009054906101000a900460ff161515610f0157600080fd5b6000600282815481101515610f1257fe5b906000526020600020906003020160000160006101000a81548160ff02191690831515021790555050565b6060610f47610c6f565b1515610f5257600080fd5b60028054905082101515610f6557600080fd5b6060600283815481101515610f7657fe5b906000526020600020906003020160020180549050604051908082528060200260200182016040528015610fb95781602001602082028038833980820191505090505b50905060008090505b600284815481101515610fd157fe5b90600052602060002090600302016002018054905081101561104e57600284815481101515610ffc57fe5b90600052602060002090600302016002018181548110151561101a57fe5b9060005260206000200154828281518110151561103357fe5b90602001906020020181815250508080600101915050610fc2565b5080915050919050565b611060610c6f565b151561106b57600080fd5b60028181548110151561107a57fe5b906000526020600020906003020160000160009054906101000a900460ff161515156110a557600080fd5b60016002828154811015156110b657fe5b906000526020600020906003020160000160006101000a81548160ff02191690831515021790555050565b6110e9610c6f565b15156110f457600080fd5b6110fd8161166e565b50565b80600a600082815260200190815260200160002060009054906101000a900460ff1615151561112e57600080fd5b6000600480548091906001016111449190611768565b90506000600760008873ffffffffffffffffffffffffffffffffffffffff1673ffffffffffffffffffffffffffffffffffffffff16815260200190815260200160002054905060028181548110151561119957fe5b906000526020600020906003020160000160009054906101000a900460ff1615156111c357600080fd5b866004838154811015156111d357fe5b906000526020600020906003020160000160006101000a81548173ffffffffffffffffffffffffffffffffffffffff021916908373ffffffffffffffffffffffffffffffffffffffff1602179055508560048381548110151561123257fe5b9060005260206000209060030201600101908051906020019061125692919061179a565b508460048381548110151561126757fe5b9060005260206000209060030201600201908051906020019061128b92919061179a565b5060028181548110151561129b57fe5b90600052602060002090600302016002018290806001815401808255809150509060018203906000526020600020016000909192909190915055506001600a600086815260200190815260200160002060006101000a81548160ff0219169083151502179055507fcbb28b3e1f77d025889ab5d1e72a2eca69e6105bc36f0044122e59c55f40e18f878787604051808473ffffffffffffffffffffffffffffffffffffffff1673ffffffffffffffffffffffffffffffffffffffff1681526020018060200180602001838103835285818151815260200191508051906020019080838360005b8381101561139c578082015181840152602081019050611381565b50505050905090810190601f1680156113c95780820380516001836020036101000a031916815260200191505b50838103825284818151815260200191508051906020019080838360005b838110156114025780820151818401526020810190506113e7565b50505050905090810190601f16801561142f5780820380516001836020036101000a031916815260200191505b509550505050505060405180910390a150505050505050565b81600660008273ffffffffffffffffffffffffffffffffffffffff1673ffffffffffffffffffffffffffffffffffffffff16815260200190815260200160002060009054906101000a900460ff161515156114a257600080fd5b6000600280548091906001016114b8919061181a565b905060016002828154811015156114cb57fe5b906000526020600020906003020160000160006101000a81548160ff0219169083151502179055508260028281548110151561150357fe5b9060005260206000209060030201600101908051906020019061152792919061179a565b506001600660008673ffffffffffffffffffffffffffffffffffffffff1673ffffffffffffffffffffffffffffffffffffffff16815260200190815260200160002060006101000a81548160ff02191690831515021790555080600760008673ffffffffffffffffffffffffffffffffffffffff1673ffffffffffffffffffffffffffffffffffffffff168152602001908152602001600020819055507faf49f6e647e48528a5c4c0a5801947007b7fa9744c066de10b2f7e747754bf1d81846040518083815260200180602001828103825283818151815260200191508051906020019080838360005b8381101561162d578082015181840152602081019050611612565b50505050905090810190601f16801561165a5780820380516001836020036101000a031916815260200191505b50935050505060405180910390a150505050565b600073ffffffffffffffffffffffffffffffffffffffff168173ffffffffffffffffffffffffffffffffffffffff16141515156116aa57600080fd5b8073ffffffffffffffffffffffffffffffffffffffff166000809054906101000a900473ffffffffffffffffffffffffffffffffffffffff1673ffffffffffffffffffffffffffffffffffffffff167f8be0079c531659141344cd1fd0a4f28419497f9722a3daafe3b4186f6b6457e060405160405180910390a3806000806101000a81548173ffffffffffffffffffffffffffffffffffffffff021916908373ffffffffffffffffffffffffffffffffffffffff16021790555050565b81548183558181111561179557600302816003028360005260206000209182019101611794919061184c565b5b505050565b828054600181600116156101000203166002900490600052602060002090601f016020900481019282601f106117db57805160ff1916838001178555611809565b82800160010185558215611809579182015b828111156118085782518255916020019190600101906117ed565b5b50905061181691906118b2565b5090565b8154818355818111156118475760030281600302836000526020600020918201910161184691906118d7565b5b505050565b6118af91905b808211156118ab57600080820160006101000a81549073ffffffffffffffffffffffffffffffffffffffff0219169055600182016000611892919061192a565b6002820160006118a2919061192a565b50600301611852565b5090565b90565b6118d491905b808211156118d05760008160009055506001016118b8565b5090565b90565b61192791905b8082111561192357600080820160006101000a81549060ff021916905560018201600061190a919061192a565b60028201600061191a9190611972565b506003016118dd565b5090565b90565b50805460018160011615610100020316600290046000825580601f10611950575061196f565b601f01602090049060005260206000209081019061196e91906118b2565b5b50565b508054600082559060005260206000209081019061199091906118b2565b5056fea165627a7a72305820e13f6096894f7140a060634862bec1f51fb03ee22a737978a176602aaf8c86c90029",
  "source": "pragma solidity ^0.5.0;\r\n\r\nimport \"./PakbetIssuer.sol\";\r\n\r\ncontract PakbetTemplate is PakbetIssuer {\r\n    \r\n    /**\r\n     * @notice Creates blank certificates which will become basis for certificates\r\n     * to be issued.\r\n     * @dev Only account in the issuer[] array can call this function.\r\n     * @param _title certificate description e.g. Certificate of Attendance.\r\n     * @param _description certificate description e.g. BTA Expert Program\r\n     */\r\n    function createTemplate(string calldata _title, string calldata _description) external isAccredited(msg.sender) {\r\n        uint256 index = addressToIssuer[msg.sender];\r\n        bytes32 hashCode = keccak256(abi.encode(_title, _description, issuers[index].name));\r\n        _createTemplate(msg.sender, _title, _description, hashCode);\r\n    }\r\n    \r\n     /**\r\n      * @param _id uint256 value corresponding to the index position of the training institution\r\n      * @return an array containing the template ids created template by the institution \r\n     */\r\n    function getIssuedTemplates(uint256 _id) external view onlyOwner returns(uint256[] memory)  {\r\n        require(_id < issuers.length);\r\n        uint256[] memory result = new uint256[](issuers[_id].templatesCreated.length);\r\n        \r\n        for (uint i = 0; i < issuers[_id].templatesCreated.length; i++) {\r\n            result[i] = issuers[_id].templatesCreated[i];\r\n        }\r\n        return result;\r\n    }\r\n\r\n    function _createTemplate(\r\n        address _creator, \r\n        string memory _title, \r\n        string memory _description, \r\n        bytes32 _hashCode\r\n    )\r\n        internal isNotExistingTemplate(_hashCode) \r\n    {\r\n        uint256 id = templates.length++;\r\n        uint256 index = addressToIssuer[_creator];\r\n        \r\n        require (issuers[index].active);\r\n        \r\n        templates[id].createdBy = _creator;\r\n        templates[id].title = _title;\r\n        templates[id].description = _description;\r\n        \r\n        issuers[index].templatesCreated.push(id);\r\n        existingTemplates[_hashCode] = true;\r\n        emit NewTemplate(_creator, _title, _description);\r\n    }\r\n}\r\n",
  "sourcePath": "D:\\ethereum\\ctc\\contracts\\PakbetTemplate.sol",
  "compiler": {
    "name": "solc",
    "version": "0.5.0+commit.1d4f565a.Emscripten.clang"
  },
  "schemaVersion": "3.0.18",
  "updatedAt": "2019-11-10T10:07:33.827Z",
  "networkType": "ethereum",
  "devdoc": {
    "methods": {
      "accreditIssuer(address,string)": {
        "details": "Only the owner of the smart contract account can call this function. \r",
        "params": {
          "_issuerAddress": "Blockchain Address associated to the training institution.\r",
          "_name": "Name of the training institution.\r"
        }
      },
      "createTemplate(string,string)": {
        "details": "Only account in the issuer[] array can call this function.\r",
        "params": {
          "_description": "certificate description e.g. BTA Expert Program\r",
          "_title": "certificate description e.g. Certificate of Attendance.\r"
        }
      },
      "deActivateIssuerById(uint256)": {
        "params": {
          "_index": "uint256 value corresponding to the index position of the training institution\r in the issuers[] array.\r"
        }
      },
      "getIssuedTemplates(uint256)": {
        "params": {
          "_id": "uint256 value corresponding to the index position of the training institution\r"
        },
        "return": "an array containing the template ids created template by the institution \r"
      },
      "getIssuerCount()": {
        "return": "the number of accredited institution\r"
      },
      "isOwner()": {
        "return": "true if `msg.sender` is the owner of the contract.\r"
      },
      "owner()": {
        "return": "the address of the owner.\r"
      },
      "reActivateIssuerById(uint256)": {
        "params": {
          "_index": "uint256 value corresponding to the index position of the training institution\r in the issuers[] array.\r"
        }
      },
      "renounceOwnership()": {
        "details": "Allows the current owner to relinquish control of the contract.\r"
      },
      "transferOwnership(address)": {
        "details": "Allows the current owner to transfer control of the contract to a newOwner.\r",
        "params": {
          "newOwner": "The address to transfer ownership to.\r"
        }
      }
    }
  },
  "userdoc": {
    "methods": {
      "accreditIssuer(address,string)": {
        "notice": "Add training institution to the blockchain.\r"
      },
      "createTemplate(string,string)": {
        "notice": "Creates blank certificates which will become basis for certificates\r to be issued.\r"
      },
      "deActivateIssuerById(uint256)": {
        "notice": "Prevent a training institution from creating and awarding certificates.\r"
      },
      "reActivateIssuerById(uint256)": {
        "notice": "Allows a training institution from creating and awarding certificates.\r"
      },
      "renounceOwnership()": {
        "notice": "Renouncing to ownership will leave the contract without an owner.\r It will not be possible to call the functions with the `onlyOwner`\r modifier anymore.\r"
      }
    }
  }
}