{
  "contractName": "PakbetIssuer",
  "abi": [
    {
      "constant": true,
      "inputs": [
        {
          "name": "",
          "type": "uint256"
        }
      ],
      "name": "students",
      "outputs": [
        {
          "name": "blockChainAccount",
          "type": "address"
        }
      ],
      "payable": false,
      "stateMutability": "view",
      "type": "function"
    },
    {
      "constant": true,
      "inputs": [
        {
          "name": "",
          "type": "uint256"
        }
      ],
      "name": "issuers",
      "outputs": [
        {
          "name": "active",
          "type": "bool"
        },
        {
          "name": "name",
          "type": "string"
        }
      ],
      "payable": false,
      "stateMutability": "view",
      "type": "function"
    },
    {
      "constant": true,
      "inputs": [
        {
          "name": "",
          "type": "uint256"
        }
      ],
      "name": "certificates",
      "outputs": [
        {
          "name": "issuedTo",
          "type": "uint256"
        },
        {
          "name": "issuedBy",
          "type": "uint256"
        },
        {
          "name": "templateUsed",
          "type": "uint256"
        },
        {
          "name": "date",
          "type": "uint32"
        }
      ],
      "payable": false,
      "stateMutability": "view",
      "type": "function"
    },
    {
      "constant": false,
      "inputs": [],
      "name": "renounceOwnership",
      "outputs": [],
      "payable": false,
      "stateMutability": "nonpayable",
      "type": "function"
    },
    {
      "constant": true,
      "inputs": [],
      "name": "owner",
      "outputs": [
        {
          "name": "",
          "type": "address"
        }
      ],
      "payable": false,
      "stateMutability": "view",
      "type": "function"
    },
    {
      "constant": true,
      "inputs": [],
      "name": "isOwner",
      "outputs": [
        {
          "name": "",
          "type": "bool"
        }
      ],
      "payable": false,
      "stateMutability": "view",
      "type": "function"
    },
    {
      "constant": true,
      "inputs": [
        {
          "name": "",
          "type": "uint256"
        }
      ],
      "name": "templates",
      "outputs": [
        {
          "name": "createdBy",
          "type": "address"
        },
        {
          "name": "title",
          "type": "string"
        },
        {
          "name": "description",
          "type": "string"
        }
      ],
      "payable": false,
      "stateMutability": "view",
      "type": "function"
    },
    {
      "constant": false,
      "inputs": [
        {
          "name": "newOwner",
          "type": "address"
        }
      ],
      "name": "transferOwnership",
      "outputs": [],
      "payable": false,
      "stateMutability": "nonpayable",
      "type": "function"
    },
    {
      "anonymous": false,
      "inputs": [
        {
          "indexed": false,
          "name": "issuerAddress",
          "type": "address"
        },
        {
          "indexed": false,
          "name": "title",
          "type": "string"
        },
        {
          "indexed": false,
          "name": "description",
          "type": "string"
        }
      ],
      "name": "NewTemplate",
      "type": "event"
    },
    {
      "anonymous": false,
      "inputs": [
        {
          "indexed": false,
          "name": "hashCode",
          "type": "bytes32"
        }
      ],
      "name": "NewCertificate",
      "type": "event"
    },
    {
      "anonymous": false,
      "inputs": [
        {
          "indexed": false,
          "name": "hashCode",
          "type": "bytes32"
        },
        {
          "indexed": false,
          "name": "student",
          "type": "address"
        }
      ],
      "name": "NewPremiumCertificate",
      "type": "event"
    },
    {
      "anonymous": false,
      "inputs": [
        {
          "indexed": false,
          "name": "issuerId",
          "type": "uint256"
        },
        {
          "indexed": false,
          "name": "name",
          "type": "string"
        }
      ],
      "name": "NewIssuer",
      "type": "event"
    },
    {
      "anonymous": false,
      "inputs": [
        {
          "indexed": false,
          "name": "id",
          "type": "uint256"
        },
        {
          "indexed": false,
          "name": "student",
          "type": "address"
        }
      ],
      "name": "NewStudent",
      "type": "event"
    },
    {
      "anonymous": false,
      "inputs": [
        {
          "indexed": true,
          "name": "previousOwner",
          "type": "address"
        },
        {
          "indexed": true,
          "name": "newOwner",
          "type": "address"
        }
      ],
      "name": "OwnershipTransferred",
      "type": "event"
    },
    {
      "constant": true,
      "inputs": [],
      "name": "getIssuerCount",
      "outputs": [
        {
          "name": "",
          "type": "uint256"
        }
      ],
      "payable": false,
      "stateMutability": "view",
      "type": "function"
    },
    {
      "constant": false,
      "inputs": [
        {
          "name": "_issuerAddress",
          "type": "address"
        },
        {
          "name": "_name",
          "type": "string"
        }
      ],
      "name": "accreditIssuer",
      "outputs": [],
      "payable": false,
      "stateMutability": "nonpayable",
      "type": "function"
    },
    {
      "constant": false,
      "inputs": [
        {
          "name": "_index",
          "type": "uint256"
        }
      ],
      "name": "deActivateIssuerById",
      "outputs": [],
      "payable": false,
      "stateMutability": "nonpayable",
      "type": "function"
    },
    {
      "constant": false,
      "inputs": [
        {
          "name": "_index",
          "type": "uint256"
        }
      ],
      "name": "reActivateIssuerById",
      "outputs": [],
      "payable": false,
      "stateMutability": "nonpayable",
      "type": "function"
    }
  ],
  "bytecode": "0x6080604052336000806101000a81548173ffffffffffffffffffffffffffffffffffffffff021916908373ffffffffffffffffffffffffffffffffffffffff1602179055506000809054906101000a900473ffffffffffffffffffffffffffffffffffffffff1673ffffffffffffffffffffffffffffffffffffffff16600073ffffffffffffffffffffffffffffffffffffffff167f8be0079c531659141344cd1fd0a4f28419497f9722a3daafe3b4186f6b6457e060405160405180910390a36110d5806100cf6000396000f3fe6080604052600436106100ba576000357c0100000000000000000000000000000000000000000000000000000000900463ffffffff16806306ead22e146100bf57806361ec30c41461013a57806363527b49146101f9578063663b3e2214610224578063715018a6146102945780638da5cb5b146102ab5780638f32d59b14610302578063a4d68d7514610331578063bc525652146103d7578063c01ff84c1461052a578063e97c147b14610565578063f2fde38b146105a0575b600080fd5b3480156100cb57600080fd5b506100f8600480360360208110156100e257600080fd5b81019080803590602001909291905050506105f1565b604051808273ffffffffffffffffffffffffffffffffffffffff1673ffffffffffffffffffffffffffffffffffffffff16815260200191505060405180910390f35b34801561014657600080fd5b506101736004803603602081101561015d57600080fd5b810190808035906020019092919050505061063e565b604051808315151515815260200180602001828103825283818151815260200191508051906020019080838360005b838110156101bd5780820151818401526020810190506101a2565b50505050905090810190601f1680156101ea5780820380516001836020036101000a031916815260200191505b50935050505060405180910390f35b34801561020557600080fd5b5061020e610716565b6040518082815260200191505060405180910390f35b34801561023057600080fd5b5061025d6004803603602081101561024757600080fd5b8101908080359060200190929190505050610736565b604051808581526020018481526020018381526020018263ffffffff1663ffffffff16815260200194505050505060405180910390f35b3480156102a057600080fd5b506102a9610785565b005b3480156102b757600080fd5b506102c0610857565b604051808273ffffffffffffffffffffffffffffffffffffffff1673ffffffffffffffffffffffffffffffffffffffff16815260200191505060405180910390f35b34801561030e57600080fd5b50610317610880565b604051808215151515815260200191505060405180910390f35b34801561033d57600080fd5b506103d56004803603604081101561035457600080fd5b81019080803573ffffffffffffffffffffffffffffffffffffffff1690602001909291908035906020019064010000000081111561039157600080fd5b8201836020820111156103a357600080fd5b803590602001918460018302840111640100000000831117156103c557600080fd5b90919293919293905050506108d7565b005b3480156103e357600080fd5b50610410600480360360208110156103fa57600080fd5b810190808035906020019092919050505061093d565b604051808473ffffffffffffffffffffffffffffffffffffffff1673ffffffffffffffffffffffffffffffffffffffff1681526020018060200180602001838103835285818151815260200191508051906020019080838360005b8381101561048657808201518184015260208101905061046b565b50505050905090810190601f1680156104b35780820380516001836020036101000a031916815260200191505b50838103825284818151815260200191508051906020019080838360005b838110156104ec5780820151818401526020810190506104d1565b50505050905090810190601f1680156105195780820380516001836020036101000a031916815260200191505b509550505050505060405180910390f35b34801561053657600080fd5b506105636004803603602081101561054d57600080fd5b8101908080359060200190929190505050610ac6565b005b34801561057157600080fd5b5061059e6004803603602081101561058857600080fd5b8101908080359060200190929190505050610b4e565b005b3480156105ac57600080fd5b506105ef600480360360208110156105c357600080fd5b81019080803573ffffffffffffffffffffffffffffffffffffffff169060200190929190505050610bd7565b005b60038181548110151561060057fe5b90600052602060002090600202016000915090508060000160009054906101000a900473ffffffffffffffffffffffffffffffffffffffff16905081565b60028181548110151561064d57fe5b90600052602060002090600302016000915090508060000160009054906101000a900460ff1690806001018054600181600116156101000203166002900480601f01602080910402602001604051908101604052809291908181526020018280546001816001161561010002031660029004801561070c5780601f106106e15761010080835404028352916020019161070c565b820191906000526020600020905b8154815290600101906020018083116106ef57829003601f168201915b5050505050905082565b6000610720610880565b151561072b57600080fd5b600280549050905090565b60018181548110151561074557fe5b90600052602060002090600402016000915090508060000154908060010154908060020154908060030160009054906101000a900463ffffffff16905084565b61078d610880565b151561079857600080fd5b600073ffffffffffffffffffffffffffffffffffffffff166000809054906101000a900473ffffffffffffffffffffffffffffffffffffffff1673ffffffffffffffffffffffffffffffffffffffff167f8be0079c531659141344cd1fd0a4f28419497f9722a3daafe3b4186f6b6457e060405160405180910390a360008060006101000a81548173ffffffffffffffffffffffffffffffffffffffff021916908373ffffffffffffffffffffffffffffffffffffffff160217905550565b60008060009054906101000a900473ffffffffffffffffffffffffffffffffffffffff16905090565b60008060009054906101000a900473ffffffffffffffffffffffffffffffffffffffff1673ffffffffffffffffffffffffffffffffffffffff163373ffffffffffffffffffffffffffffffffffffffff1614905090565b6108df610880565b15156108ea57600080fd5b6109388383838080601f016020809104026020016040519081016040528093929190818152602001838380828437600081840152601f19601f82011690508083019250505050505050610bf6565b505050565b60048181548110151561094c57fe5b90600052602060002090600302016000915090508060000160009054906101000a900473ffffffffffffffffffffffffffffffffffffffff1690806001018054600181600116156101000203166002900480601f016020809104026020016040519081016040528092919081815260200182805460018160011615610100020316600290048015610a1e5780601f106109f357610100808354040283529160200191610a1e565b820191906000526020600020905b815481529060010190602001808311610a0157829003601f168201915b505050505090806002018054600181600116156101000203166002900480601f016020809104026020016040519081016040528092919081815260200182805460018160011615610100020316600290048015610abc5780601f10610a9157610100808354040283529160200191610abc565b820191906000526020600020905b815481529060010190602001808311610a9f57829003601f168201915b5050505050905083565b610ace610880565b1515610ad957600080fd5b600281815481101515610ae857fe5b906000526020600020906003020160000160009054906101000a900460ff161515610b1257600080fd5b6000600282815481101515610b2357fe5b906000526020600020906003020160000160006101000a81548160ff02191690831515021790555050565b610b56610880565b1515610b6157600080fd5b600281815481101515610b7057fe5b906000526020600020906003020160000160009054906101000a900460ff16151515610b9b57600080fd5b6001600282815481101515610bac57fe5b906000526020600020906003020160000160006101000a81548160ff02191690831515021790555050565b610bdf610880565b1515610bea57600080fd5b610bf381610e1c565b50565b81600660008273ffffffffffffffffffffffffffffffffffffffff1673ffffffffffffffffffffffffffffffffffffffff16815260200190815260200160002060009054906101000a900460ff16151515610c5057600080fd5b600060028054809190600101610c669190610f16565b90506001600282815481101515610c7957fe5b906000526020600020906003020160000160006101000a81548160ff02191690831515021790555082600282815481101515610cb157fe5b90600052602060002090600302016001019080519060200190610cd5929190610f48565b506001600660008673ffffffffffffffffffffffffffffffffffffffff1673ffffffffffffffffffffffffffffffffffffffff16815260200190815260200160002060006101000a81548160ff02191690831515021790555080600760008673ffffffffffffffffffffffffffffffffffffffff1673ffffffffffffffffffffffffffffffffffffffff168152602001908152602001600020819055507faf49f6e647e48528a5c4c0a5801947007b7fa9744c066de10b2f7e747754bf1d81846040518083815260200180602001828103825283818151815260200191508051906020019080838360005b83811015610ddb578082015181840152602081019050610dc0565b50505050905090810190601f168015610e085780820380516001836020036101000a031916815260200191505b50935050505060405180910390a150505050565b600073ffffffffffffffffffffffffffffffffffffffff168173ffffffffffffffffffffffffffffffffffffffff1614151515610e5857600080fd5b8073ffffffffffffffffffffffffffffffffffffffff166000809054906101000a900473ffffffffffffffffffffffffffffffffffffffff1673ffffffffffffffffffffffffffffffffffffffff167f8be0079c531659141344cd1fd0a4f28419497f9722a3daafe3b4186f6b6457e060405160405180910390a3806000806101000a81548173ffffffffffffffffffffffffffffffffffffffff021916908373ffffffffffffffffffffffffffffffffffffffff16021790555050565b815481835581811115610f4357600302816003028360005260206000209182019101610f429190610fc8565b5b505050565b828054600181600116156101000203166002900490600052602060002090601f016020900481019282601f10610f8957805160ff1916838001178555610fb7565b82800160010185558215610fb7579182015b82811115610fb6578251825591602001919060010190610f9b565b5b509050610fc4919061101b565b5090565b61101891905b8082111561101457600080820160006101000a81549060ff0219169055600182016000610ffb9190611040565b60028201600061100b9190611088565b50600301610fce565b5090565b90565b61103d91905b80821115611039576000816000905550600101611021565b5090565b90565b50805460018160011615610100020316600290046000825580601f106110665750611085565b601f016020900490600052602060002090810190611084919061101b565b5b50565b50805460008255906000526020600020908101906110a6919061101b565b5056fea165627a7a7230582018ca5cb460124c85e60075ec1e26d816790444d978d82c4120ad854bd64cb8020029",
  "source": "pragma solidity ^0.5.0;\r\n\r\nimport \"./PakbetUsecase.sol\";\r\n\r\ncontract PakbetIssuer is PakbetUseCase {\r\n    \r\n    /**\r\n     * @return the number of accredited institution\r\n     */ \r\n    function getIssuerCount() external view onlyOwner returns (uint256) {\r\n        return issuers.length;\r\n    }\r\n\r\n    /**\r\n     * @notice Add training institution to the blockchain.\r\n     * @dev Only the owner of the smart contract account can call this function. \r\n     * @param _issuerAddress Blockchain Address associated to the training institution.\r\n     * @param _name Name of the training institution.\r\n     */\r\n    function accreditIssuer(address _issuerAddress, string calldata _name) external onlyOwner {\r\n        _accreditIssuer(_issuerAddress, _name);\r\n    }\r\n    \r\n    /**\r\n     * @notice Prevent a training institution from creating and awarding certificates.\r\n     * @param _index uint256 value corresponding to the index position of the training institution\r\n     * in the issuers[] array.\r\n     */ \r\n    function deActivateIssuerById(uint256 _index) external onlyOwner {\r\n        require(issuers[_index].active);\r\n        issuers[_index].active = false;\r\n    }\r\n\r\n    /**\r\n     * @notice Allows a training institution from creating and awarding certificates.\r\n     * @param _index uint256 value corresponding to the index position of the training institution\r\n     * in the issuers[] array.\r\n     */ \r\n    function reActivateIssuerById(uint256 _index) external onlyOwner {\r\n        require(!issuers[_index].active);\r\n        issuers[_index].active = true;\r\n    }\r\n    \r\n    function _accreditIssuer(address _issuerAddress, string memory _name) internal isNotAccredited(_issuerAddress) {\r\n        uint256 id = issuers.length++;\r\n        \r\n        issuers[id].active = true;\r\n        issuers[id].name = _name;\r\n        \r\n        accreditedIssuers[_issuerAddress] = true;\r\n        addressToIssuer[_issuerAddress] = id;\r\n        emit NewIssuer(id, _name);\r\n    }\r\n}\r\n",
  "sourcePath": "D:\\ethereum\\ctc\\contracts\\PakbetIssuer.sol",
  "compiler": {
    "name": "solc",
    "version": "0.5.0+commit.1d4f565a.Emscripten.clang"
  },
  "schemaVersion": "3.0.18",
  "updatedAt": "2019-11-10T10:05:33.233Z",
  "networkType": "ethereum",
  "devdoc": {
    "methods": {
      "accreditIssuer(address,string)": {
        "details": "Only the owner of the smart contract account can call this function. \r",
        "params": {
          "_issuerAddress": "Blockchain Address associated to the training institution.\r",
          "_name": "Name of the training institution.\r"
        }
      },
      "deActivateIssuerById(uint256)": {
        "params": {
          "_index": "uint256 value corresponding to the index position of the training institution\r in the issuers[] array.\r"
        }
      },
      "getIssuerCount()": {
        "return": "the number of accredited institution\r"
      },
      "isOwner()": {
        "return": "true if `msg.sender` is the owner of the contract.\r"
      },
      "owner()": {
        "return": "the address of the owner.\r"
      },
      "reActivateIssuerById(uint256)": {
        "params": {
          "_index": "uint256 value corresponding to the index position of the training institution\r in the issuers[] array.\r"
        }
      },
      "renounceOwnership()": {
        "details": "Allows the current owner to relinquish control of the contract.\r"
      },
      "transferOwnership(address)": {
        "details": "Allows the current owner to transfer control of the contract to a newOwner.\r",
        "params": {
          "newOwner": "The address to transfer ownership to.\r"
        }
      }
    }
  },
  "userdoc": {
    "methods": {
      "accreditIssuer(address,string)": {
        "notice": "Add training institution to the blockchain.\r"
      },
      "deActivateIssuerById(uint256)": {
        "notice": "Prevent a training institution from creating and awarding certificates.\r"
      },
      "reActivateIssuerById(uint256)": {
        "notice": "Allows a training institution from creating and awarding certificates.\r"
      },
      "renounceOwnership()": {
        "notice": "Renouncing to ownership will leave the contract without an owner.\r It will not be possible to call the functions with the `onlyOwner`\r modifier anymore.\r"
      }
    }
  }
}