{
  "contractName": "PakbetStudent",
  "abi": [
    {
      "constant": true,
      "inputs": [
        {
          "name": "",
          "type": "uint256"
        }
      ],
      "name": "students",
      "outputs": [
        {
          "name": "blockChainAccount",
          "type": "address"
        }
      ],
      "payable": false,
      "stateMutability": "view",
      "type": "function"
    },
    {
      "constant": false,
      "inputs": [
        {
          "name": "_hashCode",
          "type": "bytes32"
        }
      ],
      "name": "awardRegularCertificate",
      "outputs": [
        {
          "name": "",
          "type": "bool"
        }
      ],
      "payable": false,
      "stateMutability": "nonpayable",
      "type": "function"
    },
    {
      "constant": true,
      "inputs": [
        {
          "name": "",
          "type": "uint256"
        }
      ],
      "name": "issuers",
      "outputs": [
        {
          "name": "active",
          "type": "bool"
        },
        {
          "name": "name",
          "type": "string"
        }
      ],
      "payable": false,
      "stateMutability": "view",
      "type": "function"
    },
    {
      "constant": true,
      "inputs": [],
      "name": "getIssuerCount",
      "outputs": [
        {
          "name": "",
          "type": "uint256"
        }
      ],
      "payable": false,
      "stateMutability": "view",
      "type": "function"
    },
    {
      "constant": true,
      "inputs": [
        {
          "name": "",
          "type": "uint256"
        }
      ],
      "name": "certificates",
      "outputs": [
        {
          "name": "issuedTo",
          "type": "uint256"
        },
        {
          "name": "issuedBy",
          "type": "uint256"
        },
        {
          "name": "templateUsed",
          "type": "uint256"
        },
        {
          "name": "date",
          "type": "uint32"
        }
      ],
      "payable": false,
      "stateMutability": "view",
      "type": "function"
    },
    {
      "constant": false,
      "inputs": [
        {
          "name": "_title",
          "type": "string"
        },
        {
          "name": "_description",
          "type": "string"
        }
      ],
      "name": "createTemplate",
      "outputs": [],
      "payable": false,
      "stateMutability": "nonpayable",
      "type": "function"
    },
    {
      "constant": false,
      "inputs": [],
      "name": "renounceOwnership",
      "outputs": [],
      "payable": false,
      "stateMutability": "nonpayable",
      "type": "function"
    },
    {
      "constant": true,
      "inputs": [],
      "name": "owner",
      "outputs": [
        {
          "name": "",
          "type": "address"
        }
      ],
      "payable": false,
      "stateMutability": "view",
      "type": "function"
    },
    {
      "constant": true,
      "inputs": [],
      "name": "isOwner",
      "outputs": [
        {
          "name": "",
          "type": "bool"
        }
      ],
      "payable": false,
      "stateMutability": "view",
      "type": "function"
    },
    {
      "constant": true,
      "inputs": [
        {
          "name": "_hashCode",
          "type": "bytes32"
        }
      ],
      "name": "validateRegularCertificate",
      "outputs": [
        {
          "name": "",
          "type": "bool"
        }
      ],
      "payable": false,
      "stateMutability": "view",
      "type": "function"
    },
    {
      "constant": false,
      "inputs": [
        {
          "name": "_templateId",
          "type": "uint256"
        },
        {
          "name": "_hashCode",
          "type": "bytes32"
        },
        {
          "name": "_studentAddress",
          "type": "address"
        }
      ],
      "name": "awardPublicCertificates",
      "outputs": [],
      "payable": false,
      "stateMutability": "nonpayable",
      "type": "function"
    },
    {
      "constant": false,
      "inputs": [
        {
          "name": "_issuerAddress",
          "type": "address"
        },
        {
          "name": "_name",
          "type": "string"
        }
      ],
      "name": "accreditIssuer",
      "outputs": [],
      "payable": false,
      "stateMutability": "nonpayable",
      "type": "function"
    },
    {
      "constant": true,
      "inputs": [
        {
          "name": "",
          "type": "uint256"
        }
      ],
      "name": "templates",
      "outputs": [
        {
          "name": "createdBy",
          "type": "address"
        },
        {
          "name": "title",
          "type": "string"
        },
        {
          "name": "description",
          "type": "string"
        }
      ],
      "payable": false,
      "stateMutability": "view",
      "type": "function"
    },
    {
      "constant": false,
      "inputs": [
        {
          "name": "_index",
          "type": "uint256"
        }
      ],
      "name": "deActivateIssuerById",
      "outputs": [],
      "payable": false,
      "stateMutability": "nonpayable",
      "type": "function"
    },
    {
      "constant": true,
      "inputs": [
        {
          "name": "_id",
          "type": "uint256"
        }
      ],
      "name": "getIssuedTemplates",
      "outputs": [
        {
          "name": "",
          "type": "uint256[]"
        }
      ],
      "payable": false,
      "stateMutability": "view",
      "type": "function"
    },
    {
      "constant": false,
      "inputs": [
        {
          "name": "_index",
          "type": "uint256"
        }
      ],
      "name": "reActivateIssuerById",
      "outputs": [],
      "payable": false,
      "stateMutability": "nonpayable",
      "type": "function"
    },
    {
      "constant": false,
      "inputs": [
        {
          "name": "newOwner",
          "type": "address"
        }
      ],
      "name": "transferOwnership",
      "outputs": [],
      "payable": false,
      "stateMutability": "nonpayable",
      "type": "function"
    },
    {
      "anonymous": false,
      "inputs": [
        {
          "indexed": false,
          "name": "issuerAddress",
          "type": "address"
        },
        {
          "indexed": false,
          "name": "title",
          "type": "string"
        },
        {
          "indexed": false,
          "name": "description",
          "type": "string"
        }
      ],
      "name": "NewTemplate",
      "type": "event"
    },
    {
      "anonymous": false,
      "inputs": [
        {
          "indexed": false,
          "name": "hashCode",
          "type": "bytes32"
        }
      ],
      "name": "NewCertificate",
      "type": "event"
    },
    {
      "anonymous": false,
      "inputs": [
        {
          "indexed": false,
          "name": "hashCode",
          "type": "bytes32"
        },
        {
          "indexed": false,
          "name": "student",
          "type": "address"
        }
      ],
      "name": "NewPremiumCertificate",
      "type": "event"
    },
    {
      "anonymous": false,
      "inputs": [
        {
          "indexed": false,
          "name": "issuerId",
          "type": "uint256"
        },
        {
          "indexed": false,
          "name": "name",
          "type": "string"
        }
      ],
      "name": "NewIssuer",
      "type": "event"
    },
    {
      "anonymous": false,
      "inputs": [
        {
          "indexed": false,
          "name": "id",
          "type": "uint256"
        },
        {
          "indexed": false,
          "name": "student",
          "type": "address"
        }
      ],
      "name": "NewStudent",
      "type": "event"
    },
    {
      "anonymous": false,
      "inputs": [
        {
          "indexed": true,
          "name": "previousOwner",
          "type": "address"
        },
        {
          "indexed": true,
          "name": "newOwner",
          "type": "address"
        }
      ],
      "name": "OwnershipTransferred",
      "type": "event"
    },
    {
      "constant": false,
      "inputs": [
        {
          "name": "_studentAddress",
          "type": "address"
        }
      ],
      "name": "enrollStudent",
      "outputs": [],
      "payable": false,
      "stateMutability": "nonpayable",
      "type": "function"
    },
    {
      "constant": true,
      "inputs": [
        {
          "name": "_id",
          "type": "uint256"
        }
      ],
      "name": "getStudentCertificates",
      "outputs": [
        {
          "name": "",
          "type": "uint256[]"
        }
      ],
      "payable": false,
      "stateMutability": "view",
      "type": "function"
    }
  ],
  "bytecode": "0x6080604052336000806101000a81548173ffffffffffffffffffffffffffffffffffffffff021916908373ffffffffffffffffffffffffffffffffffffffff1602179055506000809054906101000a900473ffffffffffffffffffffffffffffffffffffffff1673ffffffffffffffffffffffffffffffffffffffff16600073ffffffffffffffffffffffffffffffffffffffff167f8be0079c531659141344cd1fd0a4f28419497f9722a3daafe3b4186f6b6457e060405160405180910390a361250b806100cf6000396000f3fe608060405260043610610107576000357c0100000000000000000000000000000000000000000000000000000000900463ffffffff16806306ead22e1461010c5780632a207eae1461018757806352a8f271146101d857806361ec30c41461022b57806363527b49146102ea578063663b3e22146103155780636aeae83714610385578063715018a6146104605780638da5cb5b146104775780638f32d59b146104ce57806392f0ae86146104fd57806397ded1b014610550578063a4d68d75146105b5578063bc5256521461065b578063c01ff84c146107ae578063d3eacc19146107e9578063e5f5a14614610879578063e97c147b14610909578063f2fde38b14610944575b600080fd5b34801561011857600080fd5b506101456004803603602081101561012f57600080fd5b8101908080359060200190929190505050610995565b604051808273ffffffffffffffffffffffffffffffffffffffff1673ffffffffffffffffffffffffffffffffffffffff16815260200191505060405180910390f35b34801561019357600080fd5b506101d6600480360360208110156101aa57600080fd5b81019080803573ffffffffffffffffffffffffffffffffffffffff1690602001909291905050506109e2565b005b3480156101e457600080fd5b50610211600480360360208110156101fb57600080fd5b8101908080359060200190929190505050610aa1565b604051808215151515815260200191505060405180910390f35b34801561023757600080fd5b506102646004803603602081101561024e57600080fd5b8101908080359060200190929190505050610c14565b604051808315151515815260200180602001828103825283818151815260200191508051906020019080838360005b838110156102ae578082015181840152602081019050610293565b50505050905090810190601f1680156102db5780820380516001836020036101000a031916815260200191505b50935050505060405180910390f35b3480156102f657600080fd5b506102ff610cec565b6040518082815260200191505060405180910390f35b34801561032157600080fd5b5061034e6004803603602081101561033857600080fd5b8101908080359060200190929190505050610d0c565b604051808581526020018481526020018381526020018263ffffffff1663ffffffff16815260200194505050505060405180910390f35b34801561039157600080fd5b5061045e600480360360408110156103a857600080fd5b81019080803590602001906401000000008111156103c557600080fd5b8201836020820111156103d757600080fd5b803590602001918460018302840111640100000000831117156103f957600080fd5b90919293919293908035906020019064010000000081111561041a57600080fd5b82018360208201111561042c57600080fd5b8035906020019184600183028401116401000000008311171561044e57600080fd5b9091929391929390505050610d5b565b005b34801561046c57600080fd5b50610475610fc9565b005b34801561048357600080fd5b5061048c61109b565b604051808273ffffffffffffffffffffffffffffffffffffffff1673ffffffffffffffffffffffffffffffffffffffff16815260200191505060405180910390f35b3480156104da57600080fd5b506104e36110c4565b604051808215151515815260200191505060405180910390f35b34801561050957600080fd5b506105366004803603602081101561052057600080fd5b810190808035906020019092919050505061111b565b604051808215151515815260200191505060405180910390f35b34801561055c57600080fd5b506105b36004803603606081101561057357600080fd5b810190808035906020019092919080359060200190929190803573ffffffffffffffffffffffffffffffffffffffff16906020019092919050505061116d565b005b3480156105c157600080fd5b50610659600480360360408110156105d857600080fd5b81019080803573ffffffffffffffffffffffffffffffffffffffff1690602001909291908035906020019064010000000081111561061557600080fd5b82018360208201111561062757600080fd5b8035906020019184600183028401116401000000008311171561064957600080fd5b9091929391929390505050611499565b005b34801561066757600080fd5b506106946004803603602081101561067e57600080fd5b81019080803590602001909291905050506114ff565b604051808473ffffffffffffffffffffffffffffffffffffffff1673ffffffffffffffffffffffffffffffffffffffff1681526020018060200180602001838103835285818151815260200191508051906020019080838360005b8381101561070a5780820151818401526020810190506106ef565b50505050905090810190601f1680156107375780820380516001836020036101000a031916815260200191505b50838103825284818151815260200191508051906020019080838360005b83811015610770578082015181840152602081019050610755565b50505050905090810190601f16801561079d5780820380516001836020036101000a031916815260200191505b509550505050505060405180910390f35b3480156107ba57600080fd5b506107e7600480360360208110156107d157600080fd5b8101908080359060200190929190505050611688565b005b3480156107f557600080fd5b506108226004803603602081101561080c57600080fd5b8101908080359060200190929190505050611710565b6040518080602001828103825283818151815260200191508051906020019060200280838360005b8381101561086557808201518184015260208101905061084a565b505050509050019250505060405180910390f35b34801561088557600080fd5b506108b26004803603602081101561089c57600080fd5b810190808035906020019092919050505061187f565b6040518080602001828103825283818151815260200191508051906020019060200280838360005b838110156108f55780820151818401526020810190506108da565b505050509050019250505060405180910390f35b34801561091557600080fd5b506109426004803603602081101561092c57600080fd5b810190808035906020019092919050505061199a565b005b34801561095057600080fd5b506109936004803603602081101561096757600080fd5b81019080803573ffffffffffffffffffffffffffffffffffffffff169060200190929190505050611a23565b005b6003818154811015156109a457fe5b90600052602060002090600202016000915090508060000160009054906101000a900473ffffffffffffffffffffffffffffffffffffffff16905081565b33600660008273ffffffffffffffffffffffffffffffffffffffff1673ffffffffffffffffffffffffffffffffffffffff16815260200190815260200160002060009054906101000a900460ff161515610a3b57600080fd5b600560008373ffffffffffffffffffffffffffffffffffffffff1673ffffffffffffffffffffffffffffffffffffffff16815260200190815260200160002060009054906101000a900460ff16151515610a9457600080fd5b610a9d82611a42565b5050565b6000336000600760008373ffffffffffffffffffffffffffffffffffffffff1673ffffffffffffffffffffffffffffffffffffffff168152602001908152602001600020549050600660008373ffffffffffffffffffffffffffffffffffffffff1673ffffffffffffffffffffffffffffffffffffffff16815260200190815260200160002060009054906101000a900460ff161515610b4057600080fd5b600281815481101515610b4f57fe5b906000526020600020906003020160000160009054906101000a900460ff161515610b7957600080fd5b600c600085815260200190815260200160002060009054906101000a900460ff16151515610ba657600080fd5b6001600c600086815260200190815260200160002060006101000a81548160ff0219169083151502179055507f35445dd7684af4d0b1828f42019bd59ce22b71771e931983dfe04d5eb270afd8846040518082815260200191505060405180910390a1600192505050919050565b600281815481101515610c2357fe5b90600052602060002090600302016000915090508060000160009054906101000a900460ff1690806001018054600181600116156101000203166002900480601f016020809104026020016040519081016040528092919081815260200182805460018160011615610100020316600290048015610ce25780601f10610cb757610100808354040283529160200191610ce2565b820191906000526020600020905b815481529060010190602001808311610cc557829003601f168201915b5050505050905082565b6000610cf66110c4565b1515610d0157600080fd5b600280549050905090565b600181815481101515610d1b57fe5b90600052602060002090600402016000915090508060000154908060010154908060020154908060030160009054906101000a900463ffffffff16905084565b33600660008273ffffffffffffffffffffffffffffffffffffffff1673ffffffffffffffffffffffffffffffffffffffff16815260200190815260200160002060009054906101000a900460ff161515610db457600080fd5b6000600760003373ffffffffffffffffffffffffffffffffffffffff1673ffffffffffffffffffffffffffffffffffffffff168152602001908152602001600020549050600086868686600286815481101515610e0d57fe5b9060005260206000209060030201600101604051602001808060200180602001806020018481038452898982818152602001925080828437600081840152601f19601f8201169050808301925050508481038352878782818152602001925080828437600081840152601f19601f820116905080830192505050848103825285818154600181600116156101000203166002900481526020019150805460018160011615610100020316600290048015610f085780601f10610edd57610100808354040283529160200191610f08565b820191906000526020600020905b815481529060010190602001808311610eeb57829003601f168201915b505098505050505050505050604051602081830303815290604052805190602001209050610fc03388888080601f016020809104026020016040519081016040528093929190818152602001838380828437600081840152601f19601f8201169050808301925050505050505087878080601f016020809104026020016040519081016040528093929190818152602001838380828437600081840152601f19601f8201169050808301925050505050505084611bc4565b50505050505050565b610fd16110c4565b1515610fdc57600080fd5b600073ffffffffffffffffffffffffffffffffffffffff166000809054906101000a900473ffffffffffffffffffffffffffffffffffffffff1673ffffffffffffffffffffffffffffffffffffffff167f8be0079c531659141344cd1fd0a4f28419497f9722a3daafe3b4186f6b6457e060405160405180910390a360008060006101000a81548173ffffffffffffffffffffffffffffffffffffffff021916908373ffffffffffffffffffffffffffffffffffffffff160217905550565b60008060009054906101000a900473ffffffffffffffffffffffffffffffffffffffff16905090565b60008060009054906101000a900473ffffffffffffffffffffffffffffffffffffffff1673ffffffffffffffffffffffffffffffffffffffff163373ffffffffffffffffffffffffffffffffffffffff1614905090565b6000600c600083815260200190815260200160002060009054906101000a900460ff16806111665750600b600083815260200190815260200160002060009054906101000a900460ff165b9050919050565b33600660008273ffffffffffffffffffffffffffffffffffffffff1673ffffffffffffffffffffffffffffffffffffffff16815260200190815260200160002060009054906101000a900460ff1615156111c657600080fd5b600480549050841015156111d957600080fd5b3373ffffffffffffffffffffffffffffffffffffffff166004858154811015156111ff57fe5b906000526020600020906003020160000160009054906101000a900473ffffffffffffffffffffffffffffffffffffffff1673ffffffffffffffffffffffffffffffffffffffff1614151561125357600080fd5b600560008373ffffffffffffffffffffffffffffffffffffffff1673ffffffffffffffffffffffffffffffffffffffff16815260200190815260200160002060009054906101000a900460ff1615156112ab57600080fd5b600b600084815260200190815260200160002060009054906101000a900460ff161515156112d857600080fd5b6000600860008473ffffffffffffffffffffffffffffffffffffffff1673ffffffffffffffffffffffffffffffffffffffff1681526020019081526020016000205490506000600760003373ffffffffffffffffffffffffffffffffffffffff1673ffffffffffffffffffffffffffffffffffffffff16815260200190815260200160002054905060006001806080604051908101604052808681526020018581526020018a81526020014263ffffffff168152509080600181540180825580915050906001820390600052602060002090600402016000909192909190915060008201518160000155602082015181600101556040820151816002015560608201518160030160006101000a81548163ffffffff021916908363ffffffff16021790555050500390506001600b600088815260200190815260200160002060006101000a81548160ff02191690831515021790555080600960008881526020019081526020016000208190555060038381548110151561145557fe5b906000526020600020906002020160010181908060018154018082558091505090600182039060005260206000200160009091929091909150555050505050505050565b6114a16110c4565b15156114ac57600080fd5b6114fa8383838080601f016020809104026020016040519081016040528093929190818152602001838380828437600081840152601f19601f82011690508083019250505050505050611f0c565b505050565b60048181548110151561150e57fe5b90600052602060002090600302016000915090508060000160009054906101000a900473ffffffffffffffffffffffffffffffffffffffff1690806001018054600181600116156101000203166002900480601f0160208091040260200160405190810160405280929190818152602001828054600181600116156101000203166002900480156115e05780601f106115b5576101008083540402835291602001916115e0565b820191906000526020600020905b8154815290600101906020018083116115c357829003601f168201915b505050505090806002018054600181600116156101000203166002900480601f01602080910402602001604051908101604052809291908181526020018280546001816001161561010002031660029004801561167e5780601f106116535761010080835404028352916020019161167e565b820191906000526020600020905b81548152906001019060200180831161166157829003601f168201915b5050505050905083565b6116906110c4565b151561169b57600080fd5b6002818154811015156116aa57fe5b906000526020600020906003020160000160009054906101000a900460ff1615156116d457600080fd5b60006002828154811015156116e557fe5b906000526020600020906003020160000160006101000a81548160ff02191690831515021790555050565b60603373ffffffffffffffffffffffffffffffffffffffff1660038381548110151561173857fe5b906000526020600020906002020160000160009054906101000a900473ffffffffffffffffffffffffffffffffffffffff1673ffffffffffffffffffffffffffffffffffffffff1614151561178c57600080fd5b606060038381548110151561179d57fe5b9060005260206000209060020201600101805490506040519080825280602002602001820160405280156117e05781602001602082028038833980820191505090505b50905060008090505b6003848154811015156117f857fe5b9060005260206000209060020201600101805490508110156118755760038481548110151561182357fe5b90600052602060002090600202016001018181548110151561184157fe5b9060005260206000200154828281518110151561185a57fe5b906020019060200201818152505080806001019150506117e9565b5080915050919050565b60606118896110c4565b151561189457600080fd5b600280549050821015156118a757600080fd5b60606002838154811015156118b857fe5b9060005260206000209060030201600201805490506040519080825280602002602001820160405280156118fb5781602001602082028038833980820191505090505b50905060008090505b60028481548110151561191357fe5b9060005260206000209060030201600201805490508110156119905760028481548110151561193e57fe5b90600052602060002090600302016002018181548110151561195c57fe5b9060005260206000200154828281518110151561197557fe5b90602001906020020181815250508080600101915050611904565b5080915050919050565b6119a26110c4565b15156119ad57600080fd5b6002818154811015156119bc57fe5b906000526020600020906003020160000160009054906101000a900460ff161515156119e757600080fd5b60016002828154811015156119f857fe5b906000526020600020906003020160000160006101000a81548160ff02191690831515021790555050565b611a2b6110c4565b1515611a3657600080fd5b611a3f81612132565b50565b600060038054809190600101611a58919061222c565b905081600382815481101515611a6a57fe5b906000526020600020906002020160000160006101000a81548173ffffffffffffffffffffffffffffffffffffffff021916908373ffffffffffffffffffffffffffffffffffffffff1602179055506001600560008473ffffffffffffffffffffffffffffffffffffffff1673ffffffffffffffffffffffffffffffffffffffff16815260200190815260200160002060006101000a81548160ff02191690831515021790555080600860008473ffffffffffffffffffffffffffffffffffffffff1673ffffffffffffffffffffffffffffffffffffffff168152602001908152602001600020819055507f76d881824e81c30f0d2ea36f999b13c9d258bc821dc2d29a17eb8ba7f95c275b8183604051808381526020018273ffffffffffffffffffffffffffffffffffffffff1673ffffffffffffffffffffffffffffffffffffffff1681526020019250505060405180910390a15050565b80600a600082815260200190815260200160002060009054906101000a900460ff16151515611bf257600080fd5b600060048054809190600101611c08919061225e565b90506000600760008873ffffffffffffffffffffffffffffffffffffffff1673ffffffffffffffffffffffffffffffffffffffff168152602001908152602001600020549050600281815481101515611c5d57fe5b906000526020600020906003020160000160009054906101000a900460ff161515611c8757600080fd5b86600483815481101515611c9757fe5b906000526020600020906003020160000160006101000a81548173ffffffffffffffffffffffffffffffffffffffff021916908373ffffffffffffffffffffffffffffffffffffffff16021790555085600483815481101515611cf657fe5b90600052602060002090600302016001019080519060200190611d1a929190612290565b5084600483815481101515611d2b57fe5b90600052602060002090600302016002019080519060200190611d4f929190612290565b50600281815481101515611d5f57fe5b90600052602060002090600302016002018290806001815401808255809150509060018203906000526020600020016000909192909190915055506001600a600086815260200190815260200160002060006101000a81548160ff0219169083151502179055507fcbb28b3e1f77d025889ab5d1e72a2eca69e6105bc36f0044122e59c55f40e18f878787604051808473ffffffffffffffffffffffffffffffffffffffff1673ffffffffffffffffffffffffffffffffffffffff1681526020018060200180602001838103835285818151815260200191508051906020019080838360005b83811015611e60578082015181840152602081019050611e45565b50505050905090810190601f168015611e8d5780820380516001836020036101000a031916815260200191505b50838103825284818151815260200191508051906020019080838360005b83811015611ec6578082015181840152602081019050611eab565b50505050905090810190601f168015611ef35780820380516001836020036101000a031916815260200191505b509550505050505060405180910390a150505050505050565b81600660008273ffffffffffffffffffffffffffffffffffffffff1673ffffffffffffffffffffffffffffffffffffffff16815260200190815260200160002060009054906101000a900460ff16151515611f6657600080fd5b600060028054809190600101611f7c9190612310565b90506001600282815481101515611f8f57fe5b906000526020600020906003020160000160006101000a81548160ff02191690831515021790555082600282815481101515611fc757fe5b90600052602060002090600302016001019080519060200190611feb929190612290565b506001600660008673ffffffffffffffffffffffffffffffffffffffff1673ffffffffffffffffffffffffffffffffffffffff16815260200190815260200160002060006101000a81548160ff02191690831515021790555080600760008673ffffffffffffffffffffffffffffffffffffffff1673ffffffffffffffffffffffffffffffffffffffff168152602001908152602001600020819055507faf49f6e647e48528a5c4c0a5801947007b7fa9744c066de10b2f7e747754bf1d81846040518083815260200180602001828103825283818151815260200191508051906020019080838360005b838110156120f15780820151818401526020810190506120d6565b50505050905090810190601f16801561211e5780820380516001836020036101000a031916815260200191505b50935050505060405180910390a150505050565b600073ffffffffffffffffffffffffffffffffffffffff168173ffffffffffffffffffffffffffffffffffffffff161415151561216e57600080fd5b8073ffffffffffffffffffffffffffffffffffffffff166000809054906101000a900473ffffffffffffffffffffffffffffffffffffffff1673ffffffffffffffffffffffffffffffffffffffff167f8be0079c531659141344cd1fd0a4f28419497f9722a3daafe3b4186f6b6457e060405160405180910390a3806000806101000a81548173ffffffffffffffffffffffffffffffffffffffff021916908373ffffffffffffffffffffffffffffffffffffffff16021790555050565b815481835581811115612259576002028160020283600052602060002091820191016122589190612342565b5b505050565b81548183558181111561228b5760030281600302836000526020600020918201910161228a9190612398565b5b505050565b828054600181600116156101000203166002900490600052602060002090601f016020900481019282601f106122d157805160ff19168380011785556122ff565b828001600101855582156122ff579182015b828111156122fe5782518255916020019190600101906122e3565b5b50905061230c91906123fe565b5090565b81548183558181111561233d5760030281600302836000526020600020918201910161233c9190612423565b5b505050565b61239591905b8082111561239157600080820160006101000a81549073ffffffffffffffffffffffffffffffffffffffff02191690556001820160006123889190612476565b50600201612348565b5090565b90565b6123fb91905b808211156123f757600080820160006101000a81549073ffffffffffffffffffffffffffffffffffffffff02191690556001820160006123de9190612497565b6002820160006123ee9190612497565b5060030161239e565b5090565b90565b61242091905b8082111561241c576000816000905550600101612404565b5090565b90565b61247391905b8082111561246f57600080820160006101000a81549060ff02191690556001820160006124569190612497565b6002820160006124669190612476565b50600301612429565b5090565b90565b508054600082559060005260206000209081019061249491906123fe565b50565b50805460018160011615610100020316600290046000825580601f106124bd57506124dc565b601f0160209004906000526020600020908101906124db91906123fe565b5b5056fea165627a7a72305820dbafd1e28596e8e9c43584613865c51d765c7977f7cff4e0e3480c354bea770d0029",
  "source": "pragma solidity ^0.5.0;\r\n\r\nimport \"./PakbetCertificate.sol\";\r\n\r\ncontract PakbetStudent is PakbetCertificate {\r\n    \r\n    /**\r\n     * @notice Add student to the blockchain.\r\n     * @dev Only accredited account can call this function. \r\n     * @param _studentAddress Blockchain Address associated to the student.\r\n     */ \r\n    function enrollStudent(address _studentAddress) external isAccredited(msg.sender) {\r\n        require(!premiumStudents[_studentAddress]);\r\n        _enrollStudent(_studentAddress);\r\n    }\r\n    \r\n    /**\r\n     * @param _id uint256 value corresponding to the index position of the student\r\n     * in the students[] array.\r\n     * @return an array containing the certificate ids owned by the student.\r\n     */ \r\n    function getStudentCertificates(uint256 _id) external view returns(uint256[] memory) {\r\n        require (students[_id].blockChainAccount == msg.sender);\r\n        uint256[] memory result = new uint256[](students[_id].certificatesOwned.length);\r\n        \r\n        for (uint i = 0; i < students[_id].certificatesOwned.length; i++) {\r\n            result[i] = students[_id].certificatesOwned[i];\r\n        }\r\n        return result;\r\n    }\r\n    \r\n    function _enrollStudent(address _studentAccount) internal {\r\n        uint256 id = students.length++;\r\n        \r\n        students[id].blockChainAccount = _studentAccount;\r\n        premiumStudents[_studentAccount] = true;\r\n        addressToStudent[_studentAccount] = id;\r\n        emit NewStudent(id, _studentAccount);\r\n   }\r\n}\r\n\r\n//Owner\r\n//\"0xCA35b7d915458EF540aDe6068dFe2F44E8fa733c\",\"Tutu Institute\"\r\n\r\n//Issuers\r\n//\"0x14723A09ACff6D2A60DcdF7aA4AFf308FDDC160C\",\"Block Chain\"\r\n//\"0x4B0897b0513fdC7C541B6d9D7E929C4e5364D2dB\",\"Kadenang Bloke\"\r\n\r\n//Students\r\n//\"0x583031D1113aD414F02576BD6afaBfb302140225\"\r\n//\"0xdD870fA1b7C4700F2BD7f44238821C26f7392148\"\r\n\r\n//Templates\r\n//\"Certificate of Completion\",\"Blockchain Security\"\r\n//\"Certificate of Attendance\",\"BTA Excellarator\"\r\n//\"Certificate of Participation\",\"BTA Expert\"\r\n//\"Certificate of Participation\",\"Block Chain\"\r\n//\"Certificate of Participation\",\"Kadenang Bloke\"\r\n\r\n\r\n//Regular Certificate\r\n//\"0x4365727469666963617465206f662050617274696369706174696f6e0a4a6f00\"\r\n//\"0x4365727469666963617465206f6620417474656e64616e63650a4a6f656c0000\"\r\n//\"0x4365727469666963617465206f6620436f6d706c6574696f6e0a4a6f656c0000\"\r\n\r\n//Public Certificate\r\n//0,\"0x7465737400000000000000000000000000000000000000000000000000000000\",\"0x583031D1113aD414F02576BD6afaBfb302140225\"\r\n//1,\"0x6a6f656c00000000000000000000000000000000000000000000000000000000\",\"0x583031D1113aD414F02576BD6afaBfb302140225\" \r\n//2,\"0x6a696d656e657a00000000000000000000000000000000000000000000000000\",\"0x583031D1113aD414F02576BD6afaBfb302140225\"\r\n//3,\"0x4a6f656c204b6164656e61206664642064206600000000000000000000000000\",\"0xdD870fA1b7C4700F2BD7f44238821C26f7392148\"\r\n",
  "sourcePath": "D:/ethereum/ctc/contracts/PakbetStudent.sol",
  "compiler": {
    "name": "solc",
    "version": "0.5.0+commit.1d4f565a.Emscripten.clang"
  },
  "schemaVersion": "3.0.18",
  "updatedAt": "2019-11-10T10:11:33.844Z",
  "networkType": "ethereum",
  "devdoc": {
    "methods": {
      "accreditIssuer(address,string)": {
        "details": "Only the owner of the smart contract account can call this function. \r",
        "params": {
          "_issuerAddress": "Blockchain Address associated to the training institution.\r",
          "_name": "Name of the training institution.\r"
        }
      },
      "awardPublicCertificates(uint256,bytes32,address)": {
        "params": {
          "_hashCode": "the resulting value when pdf is hashed.\r",
          "_studentAddress": "Blockchain Address associated to the student.\r",
          "_templateId": "uint256 value corresponding to the index position of template in the templates[] array.\r"
        }
      },
      "awardRegularCertificate(bytes32)": {
        "details": "Record the hash value of the pdf document to the blockchain account.\r",
        "params": {
          "_hashCode": "the resulting value when pdf is hashed.\r"
        },
        "return": "true if awarding of certificate is good, false if awarding of certificate fails.\r"
      },
      "createTemplate(string,string)": {
        "details": "Only account in the issuer[] array can call this function.\r",
        "params": {
          "_description": "certificate description e.g. BTA Expert Program\r",
          "_title": "certificate description e.g. Certificate of Attendance.\r"
        }
      },
      "deActivateIssuerById(uint256)": {
        "params": {
          "_index": "uint256 value corresponding to the index position of the training institution\r in the issuers[] array.\r"
        }
      },
      "enrollStudent(address)": {
        "details": "Only accredited account can call this function. \r",
        "params": {
          "_studentAddress": "Blockchain Address associated to the student.\r"
        }
      },
      "getIssuedTemplates(uint256)": {
        "params": {
          "_id": "uint256 value corresponding to the index position of the training institution\r"
        },
        "return": "an array containing the template ids created template by the institution \r"
      },
      "getIssuerCount()": {
        "return": "the number of accredited institution\r"
      },
      "getStudentCertificates(uint256)": {
        "params": {
          "_id": "uint256 value corresponding to the index position of the student\r in the students[] array.\r"
        },
        "return": "an array containing the certificate ids owned by the student.\r"
      },
      "isOwner()": {
        "return": "true if `msg.sender` is the owner of the contract.\r"
      },
      "owner()": {
        "return": "the address of the owner.\r"
      },
      "reActivateIssuerById(uint256)": {
        "params": {
          "_index": "uint256 value corresponding to the index position of the training institution\r in the issuers[] array.\r"
        }
      },
      "renounceOwnership()": {
        "details": "Allows the current owner to relinquish control of the contract.\r"
      },
      "transferOwnership(address)": {
        "details": "Allows the current owner to transfer control of the contract to a newOwner.\r",
        "params": {
          "newOwner": "The address to transfer ownership to.\r"
        }
      },
      "validateRegularCertificate(bytes32)": {
        "params": {
          "_hashCode": "the resulting value when pdf is hashed.\r"
        },
        "return": "true if Certificate exist in the blockchain, false if not.\r"
      }
    }
  },
  "userdoc": {
    "methods": {
      "accreditIssuer(address,string)": {
        "notice": "Add training institution to the blockchain.\r"
      },
      "awardRegularCertificate(bytes32)": {
        "notice": "Only accredited account can call this function.\r"
      },
      "createTemplate(string,string)": {
        "notice": "Creates blank certificates which will become basis for certificates\r to be issued.\r"
      },
      "deActivateIssuerById(uint256)": {
        "notice": "Prevent a training institution from creating and awarding certificates.\r"
      },
      "enrollStudent(address)": {
        "notice": "Add student to the blockchain.\r"
      },
      "reActivateIssuerById(uint256)": {
        "notice": "Allows a training institution from creating and awarding certificates.\r"
      },
      "renounceOwnership()": {
        "notice": "Renouncing to ownership will leave the contract without an owner.\r It will not be possible to call the functions with the `onlyOwner`\r modifier anymore.\r"
      }
    }
  }
}